:020000040800F2
:1000000000500020192A0008392C00083B2C000859
:100010003D2C00083F2C0008412C00080000000087
:100020000000000000000000000000003D0B000880
:10003000432C000800000000810B0008452C00083C
:10004000612A0008612A0008612A0008612A000864
:10005000612A0008612A0008612A0008612A000854
:10006000612A0008612A0008612A0008612A000844
:10007000612A0008612A0008612A0008612A000834
:10008000612A0008612A0008612A0008612A000824
:10009000612A0008612A0008612A0008612A000814
:1000A000612A0008612A0008612A0008612A000804
:1000B000612A0008612A0008612A0008612A0008F4
:1000C000612A0008612A0008612A0008612A0008E4
:1000D000612A0008612A0008612A0008612A0008D4
:1000E000612A0008612A0008612A00080000000057
:1000F0000000000000000000000000000000000000
:0C01000000000000000000005FF808F1A3
:1001100010B5054C237833B9044B13B10448AFF341
:1001200000800123237010BDDC01002000000000CE
:100130008C58000808B5034B1BB103490348AFF3C3
:10014000008008BD00000000E00100208C5800087D
:10015000034613F8012B002AFBD1181A0138704707
:1001600081F0004102E000BF83F0004330B54FEA68
:1001700041044FEA430594EA050F08BF90EA020FD5
:100180001FBF54EA000C55EA020C7FEA645C7FEA68
:10019000655C00F0E2804FEA5454D4EB5555B8BF8B
:1001A0006D420CDD2C4480EA020281EA030382EAFC
:1001B000000083EA010180EA020281EA0303362D8E
:1001C00088BF30BD11F0004F4FEA01314FF4801C61
:1001D0004CEA113102D0404261EB410113F0004F73
:1001E0004FEA03334CEA133302D0524263EB43032A
:1001F00094EA050F00F0A780A4F10104D5F1200EC8
:100200000DDB02FA0EFC22FA05F2801841F1000122
:1002100003FA0EF2801843FA05F359410EE0A5F1F6
:1002200020050EF1200E012A03FA0EFC28BF4CF027
:10023000020C43FA05F3C01851EBE37101F00045DD
:1002400007D54FF0000EDCF1000C7EEB00006EEBEA
:100250000101B1F5801F1BD3B1F5001F0CD3490874
:100260005FEA30004FEA3C0C04F101044FEA4452CB
:1002700012F5800F80F09A80BCF1004F08BF5FEA52
:10028000500C50F1000041EB045141EA050130BD32
:100290005FEA4C0C404141EB0101013C28BFB1F544
:1002A000801FE9D291F0000F04BF01460020B1FA8F
:1002B00081F308BF2033A3F10B03B3F120020CDA62
:1002C0000C3208DD02F1140CC2F10C0201FA0CF040
:1002D00021FA02F10CE002F11402D8BFC2F1200CA5
:1002E00001FA02F120FA0CFCDCBF41EA0C0190405B
:1002F000E41AA2BF01EB0451294330BD6FEA0404A4
:100300001F3C1CDA0C340EDC04F11404C4F120028E
:1003100020FA04F001FA02F340EA030021FA04F3A0
:1003200045EA030130BDC4F10C04C4F1200220FAF7
:1003300002F001FA04F340EA0300294630BD21FA35
:1003400004F0294630BD94F0000F83F4801306BFFB
:1003500081F480110134013D4EE77FEA645C18BFEF
:100360007FEA655C29D094EA050F08BF90EA020F86
:1003700005D054EA000C04BF1946104630BD91EA7E
:10038000030F1EBF0021002030BD5FEA545C05D181
:100390004000494128BF41F0004130BD14F58004C0
:1003A0003CBF01F5801130BD01F0004545F0FE4134
:1003B00041F470014FF0000030BD7FEA645C1ABF69
:1003C000194610467FEA655C1CBF0B46024650EAA0
:1003D000013406BF52EA033591EA030F41F40021CC
:1003E00030BD00BF90F0000F04BF0021704730B552
:1003F0004FF4806404F132044FF000054FF0000127
:1004000050E700BF90F0000F04BF0021704730B5E7
:100410004FF4806404F1320410F0004548BF4042BC
:100420004FF000013EE700BF42004FEAE2014FEA11
:1004300031014FEA02701FBF12F07F4393F07F4FEC
:1004400081F06051704732F07F4208BF704793F0EF
:100450007F4F04BF41F40021704730B54FF4607402
:1004600001F0004521F000411CE700BF50EA010205
:1004700008BF704730B54FF000050AE050EA0102AE
:1004800008BF704730B511F0004502D5404261EB1E
:1004900041014FF4806404F132045FEA915C3FF45F
:1004A000D8AE4FF003025FEADC0C18BF03325FEAFC
:1004B000DC0C18BF033202EBDC02C2F1200300FAAD
:1004C00003FC20FA02F001FA03FE40EA0E0021FAD2
:1004D00002F11444BDE600BF70B54FF0FF0C4CF4C0
:1004E000E06C1CEA11541DBF1CEA135594EA0C0F72
:1004F00095EA0C0F00F0DEF82C4481EA030621EAAD
:100500004C5123EA4C5350EA013518BF52EA0335E7
:1005100041F4801143F4801338D0A0FB02CE4FF099
:100520000005E1FB02E506F00042E0FB03E54FF0C9
:100530000006E1FB03569CF0000F18BF4EF0010EC1
:10054000A4F1FF04B6F5007F64F5407404D25FEABD
:100550004E0E6D4146EB060642EAC62141EA555170
:100560004FEAC52040EA5E504FEACE2EB4F1FD0CB2
:1005700088BFBCF5E06F1ED8BEF1004F08BF5FEA30
:10058000500E50F1000041EB045170BD06F00046E2
:1005900046EA010140EA020081EA0301B4EB5C048F
:1005A000C2BFD4EB0C0541EA045170BD41F4801187
:1005B0004FF0000E013C00F3AB8014F1360FDEBFAC
:1005C000002001F0004170BDC4F10004203C35DA88
:1005D0000C341BDC04F11404C4F1200500FA05F30B
:1005E00020FA04F001FA05F240EA020001F00042AC
:1005F00021F0004110EBD37021FA04F642EB060122
:100600005EEA430E08BF20EAD37070BDC4F10C044B
:10061000C4F1200500FA04F320FA05F001FA04F20F
:1006200040EA020001F0004110EBD37041F10001FB
:100630005EEA430E08BF20EAD37070BDC4F1200506
:1006400000FA05F24EEA020E20FA04F301FA05F26E
:1006500043EA020321FA04F001F0004121FA04F216
:1006600020EA020000EBD3705EEA430E08BF20EAE6
:10067000D37070BD94F0000F0FD101F00046400020
:1006800041EB010111F4801F08BF013CF7D041EAA2
:10069000060195F0000F18BF704703F000465200A6
:1006A00043EB030313F4801F08BF013DF7D043EA77
:1006B0000603704794EA0C0F0CEA135518BF95EA2D
:1006C0000C0F0CD050EA410618BF52EA4306D1D1B4
:1006D00081EA030101F000414FF0000070BD50EAD3
:1006E000410606BF1046194652EA430619D094EA5D
:1006F0000C0F02D150EA013613D195EA0C0F05D147
:1007000052EA03361CBF104619460AD181EA03019A
:1007100001F0004141F0FE4141F470014FF0000052
:1007200070BD41F0FE4141F4780170BD70B54FF0ED
:10073000FF0C4CF4E06C1CEA11541DBF1CEA13556D
:1007400094EA0C0F95EA0C0F00F0A7F8A4EB05044F
:1007500081EA030E52EA03354FEA013100F0888046
:100760004FEA03334FF0805545EA131343EA12630F
:100770004FEA022245EA111545EA10654FEA0026C4
:100780000EF000419D4208BF964244F1FD0404F57D
:10079000407402D25B084FEA3202B61A65EB0305D9
:1007A0005B084FEA32024FF480104FF4002CB6EB96
:1007B000020E75EB030E22BFB61A754640EA0C0016
:1007C0005B084FEA3202B6EB020E75EB030E22BF56
:1007D000B61A754640EA5C005B084FEA3202B6EB97
:1007E000020E75EB030E22BFB61A754640EA9C0056
:1007F0005B084FEA3202B6EB020E75EB030E22BF26
:10080000B61A754640EADC0055EA060E18D04FEAE3
:10081000051545EA16754FEA06164FEAC30343EA83
:1008200052734FEAC2025FEA1C1CC0D111F4801F50
:100830000BD141EA00014FF000004FF0004CB6E749
:1008400011F4801F04BF01430020B4F1FD0C88BFE8
:10085000BCF5E06F3FF6AFAEB5EB030C04BFB6EBF3
:10086000020C5FEA500C50F1000041EB045170BDE6
:100870000EF0004E4EEA113114EB5C04C2BFD4EB13
:100880000C0541EA045170BD41F480114FF0000E97
:10089000013C90E645EA060E8DE60CEA135594EA13
:1008A0000C0F08BF95EA0C0F3FF43BAF94EA0C0F16
:1008B0000AD150EA01347FF434AF95EA0C0F7FF48B
:1008C00025AF104619462CE795EA0C0F06D152EADF
:1008D00003353FF4FDAE1046194622E750EA4106C3
:1008E00018BF52EA43067FF4C5AE50EA41047FF4D4
:1008F0000DAF52EA43057FF4EBAE12E74FF0FF3C39
:1009000006E000BF4FF0010C02E000BF4FF0010C09
:100910004DF804CD4FEA410C7FEA6C5C4FEA430C82
:1009200018BF7FEA6C5C1BD001B050EA410C0CBFD1
:1009300052EA430C91EA030F02BF90EA020F002033
:10094000704710F1000F91EA030F58BF994208BF9A
:1009500090422CBFD8176FEAE37040F00100704757
:100960004FEA410C7FEA6C5C02D150EA013C07D1AE
:100970004FEA430C7FEA6C5CD6D152EA033CD3D0F9
:100980005DF8040B704700BF8446104662468C46F3
:100990001946634600E000BF01B5FFF7B7FF002826
:1009A00048BF10F1000F01BD4DF808EDFFF7F4FF4F
:1009B0000CBF012000205DF808FB00BF4DF808EDDA
:1009C000FFF7EAFF34BF012000205DF808FB00BFFD
:1009D0004DF808EDFFF7E0FF94BF012000205DF81F
:1009E00008FB00BF4DF808EDFFF7CEFF94BF0120D4
:1009F00000205DF808FB00BF4DF808EDFFF7C4FFCD
:100A000034BF012000205DF808FB00BF4FEA410C15
:100A10007FEA6C5C02D150EA013C0AD14FEA430CF8
:100A20007FEA6C5C02D152EA033C02D14FF0000035
:100A300070474FF0010070474FEA410212F5001273
:100A400015D211D56FF47873B3EB625212D94FEA15
:100A5000C12343F0004343EA505311F0004F23FAFF
:100A600002F018BF404270474FF00000704750EA54
:100A7000013005D111F0004008BF6FF00040704711
:100A80004FF00000704700BF00F1080343604FF0D3
:100A9000FF328260C360036100230360704700235C
:100AA0000361704730B40D68B5F1FF3F11D000F11C
:100AB00008031C465B681A68AA42FAD963684B604F
:100AC00099608C606160086103680133036030BC29
:100AD00070470469F2E70369416882688A60416887
:100AE00051605A68824205D00022026118680138BC
:100AF0001860704782685A60F6E7000082B00023F1
:100B000001930D4B1B68B3F1FF3F08D04FF00F036B
:100B100083F31188BFF36F8FBFF34F8FFEE74FF062
:100B20000F0383F31188BFF36F8FBFF34F8F019BC8
:100B3000002BFCD002B0704700000020074B196862
:100B40000868B0E8F00F80F30988BFF36F8F4FF0AB
:100B5000000080F311884EF00D0E70475C2A0020D3
:100B600006480068006880F3088862B661B6BFF383
:100B70004F8FBFF36F8F00DF00BF000008ED00E074
:100B8000EFF30980BFF36F8F0D4B1A6820E9F00F68
:100B900010602DE908404FF00F0080F3118801F03C
:100BA0005BFA4FF0000080F31188BDE80840196837
:100BB0000868B0E8F00F80F30988BFF36F8F7047C3
:100BC0005C2A00204FF0807340F8043C21F00101C2
:100BD00040F8081C034B40F80C3C40F8202C4038EF
:100BE000704700BFFD0A00084FF00F0383F3118820
:100BF000BFF36F8FBFF34F8F0B4A1368013313603E
:100C0000012B00D070474FF0E023D3F8043D13F0E0
:100C1000FF0FF7D04FF00F0383F31188BFF36F8FEF
:100C2000BFF34F8FFEE700BF00000020094B1B6899
:100C300043B94FF00F0383F31188BFF36F8FBFF3F6
:100C40004F8FFEE7013B034A13600BB983F3118812
:100C5000704700BF0000002008B54FF00F0383F37A
:100C60001188BFF36F8FBFF34F8F01F065F828B184
:100C70004FF0E0234FF08052C3F8042D002383F39C
:100C8000118808BD4FF0E022002313619361054BEA
:100C90001B680549A1FB03139B09013B5361072313
:100CA0001361704708000020D34D62104FF0E0231D
:100CB000D3F8083DD96A474A914208D04FF00F0354
:100CC00083F31188BFF36F8FBFF34F8FFEE79A6BEB
:100CD000414B9A4208D04FF00F0383F31188BFF3C2
:100CE0006F8FBFF34F8FFEE710B582B000230193E3
:100CF0003A4B1A78D2B28DF80220FF221A701B7874
:100D0000DBB28DF803309DF8033003F00F03344A53
:100D1000137043B94FF00F0383F31188BFF36F8F44
:100D2000BFF34F8FFEE79DF80330DB4313F00F0F47
:100D300008D04FF00F0383F31188BFF36F8FBFF319
:100D40004F8FFEE79DF8033013F0800F09D0019B11
:100D5000013301939DF803305B00DBB28DF8033063
:100D6000F0E7019B082B08D14FF00F0383F31188A4
:100D7000BFF36F8FBFF34F8FFEE7019BC3F10703F4
:100D8000184A13601B02136003F4E06313609DF8BC
:100D90000230DBB2114A13704FF0E023D3F8202D5C
:100DA00042F47F02C3F8202DD3F8202D42F07F4279
:100DB000C3F8202D0024C3F81C4DFFF763FF0A4B36
:100DC0001C60FFF7CDFE01F047F9FFF797FE2046C4
:100DD00002B010BD3D0B0008810B000800E400E0EC
:100DE000F8010020FC01002000000020104A12F051
:100DF000070F1AD0D11D21F00701C1F5205313446C
:100E00000A460C480260002141601344083B23F06D
:100E100007030948036059601960991A516013600B
:100E2000064B1960064B196070474FF42053E8E7F2
:100E300004020020142A002000020020082A0020BA
:100E4000042A00201E4B19461B688342FBD31C4A10
:100E500091420ED01B4A914202D31B4A914208D9BB
:100E60004FF00F0383F31188BFF36F8FBFF34F8FE2
:100E7000FEE74A6801EB020C844509D0426800EBAA
:100E8000020C634509D00360884218D0086070479F
:100E9000406802444A600846F0E710B40B4C2468EE
:100EA000A3420AD05B681A4442600B681B68036067
:100EB000884200D0086010BC70470460F8E77047B3
:100EC000142A002004020020032A0020000200202F
:100ED00070B5044670B110F1090F0AD8083414F047
:100EE000070307D0C3F10803DA43A24223D31C440B
:100EF00000E0002400F012FF4F4B1B68EBB1002C08
:100F0000C0F28280002C00F081804C4B1868A04217
:100F1000C0F08B804A4B1B684A4A934202D34A4A2C
:100F2000934216D94FF00F0383F31188BFF36F8FED
:100F3000BFF34F8FFEE70024DCE7FFF757FFDEE744
:100F40004FF00F0383F31188BFF36F8FBFF34F8F01
:100F5000FEE73B495A68A2420AD21A6842B13949AF
:100F60008A42EDD31946384B9A42E9D81346F1E745
:100F7000314A12689A425AD00D680835314A954272
:100F800002D3314A954208D94FF00F0383F31188F9
:100F9000BFF36F8FBFF34F8FFEE71A680A605A687E
:100FA000A2420FD3121B102A1AD91E1916F0070FCE
:100FB00011D04FF00F0383F31188BFF36F8FBFF38E
:100FC0004F8FFEE74FF00F0383F31188BFF36F8F4E
:100FD000BFF34F8FFEE772605C600A681A510E60C3
:100FE0005A68801A1549086018490968884201D270
:100FF0001649086042F000425A6000221A60144A02
:1010000013680133136002E0002500E0002500F0C2
:101010004FFF15F0070F0CD04FF00F0383F311882B
:10102000BFF36F8FBFF34F8FFEE70025EFE700257B
:10103000EDE7284670BD00BF00020020042A002012
:10104000142A002004020020032A0020082A00207D
:101050000C2A0020002844D038B50446A0F1080529
:10106000204B9D420FD3204B9D420CD850F8043C9E
:10107000002B11DB4FF00F0383F31188BFF36F8F49
:10108000BFF34F8FFEE74FF00F0383F31188BFF3D9
:101090006F8FBFF34F8FFEE750F8082C42B14FF02F
:1010A0000F0383F31188BFF36F8FBFF34F8FFEE7FA
:1010B000002B00DB38BD23F0004340F8043C00F077
:1010C0002DFE54F8041C094A13680B44136028468B
:1010D000FFF7B8FE064A13680133136000F0E8FE1C
:1010E000E8E7704704020020032A0020042A0020B9
:1010F000102A00200346406A18B11B6B1868C0F123
:101100000500704710B50446FFF76EFDA26BE36B58
:101110009A4204D00024FFF789FD204610BD012427
:10112000F9E710B50446FFF75FFDA36B23B901246F
:10113000FFF77CFD204610BD0024F9E770B504469A
:101140001546866B026C5AB903681BB10020013644
:10115000A66370BD806801F055F90023A360F6E72F
:101160006DB9406801F02CFE226C63681344636023
:10117000A268934219D3236863602846E7E7C068F2
:1011800001F01EFE226C5142E3689B1AE360226864
:10119000934202D2A3680B44E360022D01D00020E9
:1011A000D5E726B1013E0020D1E72846CFE7002051
:1011B000CDE708B50346026C62B10846D968114410
:1011C000D960D3F808C0614501D31968D960D968DE
:1011D00001F0F6FD08BD38B50546FFF705FD95F8A9
:1011E000454064B201E0013C64B2002C0ADD6B6A48
:1011F00043B105F1240000F0BDFF0028F3D001F059
:1012000085F8F0E7FF2385F84530FFF70FFDFFF77E
:10121000EBFC95F8444064B201E0013C64B2002C60
:101220000ADD2B6943B105F1100000F0A3FF00288F
:10123000F3D001F06BF8F0E7FF2385F84430FFF7B7
:10124000F5FC38BD38B590B10D460446C36B2BB1E3
:10125000026C0021A3FB022393B999B14FF00F0355
:1012600083F31188BFF36F8FBFF34F8FFEE74FF00B
:101270000F0383F31188BFF36F8FBFF34F8FFEE728
:101280000121EAE7FFF7B0FC2368E26B216C01FB68
:101290000230A0600020A0636360013A02FB0133CA
:1012A000E360FF2384F8443084F84530B5B92369FE
:1012B0001BB9FFF7BBFC012038BD04F1100000F0A2
:1012C00059FF0028F5D04FF0E0234FF08052C3F8CB
:1012D000042DBFF34F8FBFF36F8FEAE704F11000C7
:1012E000FFF7D2FB04F12400FFF7CEFBE1E738B5AE
:1012F0001D46049C0B4649B92460E0632364012128
:101300002046FFF79FFF84F84C5038BD2260F4E779
:10131000F0B583B060B10C46174605460023A0FB2C
:10132000041272B923B904FB05F010F1510F0AD968
:101330004FF00F0383F31188BFF36F8FBFF34F8F0D
:10134000FEE70123EEE75030FFF7C2FD064638B155
:1013500000903B4600F1500221462846FFF7C7FFA8
:10136000304603B0F0BDF0B585B0019288B10F46AC
:101370001D460446B1B1022D20D1E36B012B1DD0D7
:101380004FF00F0383F31188BFF36F8FBFF34F8FBD
:10139000FEE74FF00F0383F31188BFF36F8FBFF3A6
:1013A0004F8FFEE7036C002BE5D04FF00F0383F364
:1013B0001188BFF36F8FBFF34F8FFEE700F0ACFFD4
:1013C000064658B9019B002B48D04FF00F0383F31A
:1013D0001188BFF36F8FBFF34F8FFEE700263DE00C
:1013E0002A4639462046FFF7A9FE636A7BB948B111
:1013F0004FF0E0234FF08052C3F8042DBFF34F8F1E
:10140000BFF36F8FFFF712FC012005B0F0BD04F1B0
:10141000240000F0AFFE0028F4D04FF0E0234FF09E
:101420008052C3F8042DBFF34F8FBFF36F8FE9E7EE
:10143000FFF7FCFB0020E8E702A800F017FF0126F9
:1014400019E0002384F8443021E0002384F845307B
:1014500023E02046FFF7BFFE00F02AFDFFF7C4FBA4
:10146000A26BE36B9A42BBD3022DB9D0019B002B38
:10147000DED0002EE0D0FFF7D9FB00F04FFCFFF7E5
:10148000B3FB94F8442052B2B2F1FF3FD9D094F8A4
:10149000452052B2B2F1FF3FD7D0FFF7C7FB01A9F9
:1014A00002A800F0EFFED8B92046FFF72BFE002877
:1014B000CFD0019904F1100000F01AFE2046FFF78A
:1014C0008AFE00F0F5FC0028C8D14FF0E0234FF071
:1014D0008052C3F8042DBFF34F8FBFF36F8FBDE76A
:1014E0002046FFF778FE00F0E3FC00208DE7F0B522
:1014F00085B0019290B10F460446C1B100F00CFFD7
:10150000064600BB019B002B5ED04FF00F0383F318
:101510001188BFF36F8FBFF34F8FFEE74FF00F03BC
:1015200083F31188BFF36F8FBFF34F8FFEE7036C18
:10153000002BE3D04FF00F0383F31188BFF36F8FBD
:10154000BFF34F8FFEE700263EE039462046FFF707
:1015500030FE013DA563236923B9FFF767FB012036
:1015600005B0F0BD04F1100000F004FE0028F4D036
:101570004FF0E0234FF08052C3F8042DBFF34F8F9C
:10158000BFF36F8FE9E7FFF751FB0020E8E702A800
:1015900000F06CFE012621E0002384F8443029E0AD
:1015A000002384F845302BE02046FFF714FE00F0BE
:1015B0007FFC09E02046FFF70EFE00F079FC204694
:1015C000FFF7AFFD00283FD1FFF70EFBA56B002D05
:1015D000BBD1019B002BD6D0002ED8D0FFF726FB25
:1015E00000F09CFBFFF700FB94F844305BB2B3F1D2
:1015F000FF3FD1D094F845305BB2B3F1FF3FCFD07D
:10160000FFF714FB01A902A800F03CFE0028D1D18D
:101610002046FFF786FD0028C6D0019904F124007A
:1016200000F066FD2046FFF7D6FD00F041FC0028E3
:10163000CAD14FF0E0234FF08052C3F8042DBFF31E
:101640004F8FBFF36F8FBFE7002089E770B584B07D
:10165000019158B10446036C8BB14FF00F0383F333
:101660001188BFF36F8FBFF34F8FFEE74FF00F036B
:1016700083F31188BFF36F8FBFF34F8FFEE700F046
:101680004BFE054650B9019B5BB14FF00F0383F34E
:101690001188BFF36F8FBFF34F8FFEE700263546EB
:1016A0004BE0064649E0013BA363236833B123695D
:1016B00043B9FFF7BBFA012004B070BD00F06EFF24
:1016C000A060F4E704F1100000F054FD0028F0D011
:1016D0004FF0E0234FF08052C3F8042DBFF34F8F3B
:1016E000BFF36F8FE5E7FFF7A1FA0020E4E702A858
:1016F00000F0BCFD01252AE0002384F8443032E0EC
:10170000002384F8453034E0FFF76EFAA06800F05B
:1017100013FE0646FFF78AFA3BE02046FFF75BFD23
:1017200000F0C6FB09E02046FFF755FD00F0C0FBC6
:101730002046FFF7F6FC002842D1FFF755FAA36BCD
:10174000002BB0D1019B002BCDD0002DCFD0FFF7C7
:101750006DFA00F0E3FAFFF747FA94F844305BB211
:10176000B3F1FF3FC8D094F845305BB2B3F1FF3F0F
:10177000C6D0FFF75BFA01A902A800F083FD00289C
:10178000D1D12046FFF7CDFC0028C6D02368002B1E
:10179000BAD0019904F1240000F0AAFC2046FFF71A
:1017A0001AFD00F085FB0028C7D14FF0E0234FF071
:1017B0008052C3F8042DBFF34F8FBFF36F8FBCE788
:1017C0000EB9002078E7FFF70FFA2046FFF792FCEA
:1017D0000146A06800F078FEFFF728FAF1E7000064
:1017E00030B110B40C4601468CB10020034611E024
:1017F0004FF00F0383F31188BFF36F8FBFF34F8F49
:10180000FEE70E4800EBC30008B10460416010BC65
:1018100070470133072BF7D8084A02EBC30252681E
:101820008A42EED00028F4D1044A52F83320002A2C
:10183000EFD1024800EBC300EBE700BF1C2A0020F9
:1018400070B504460D461646FFF7CEF994F84430BD
:101850005BB2B3F1FF3F0DD094F845305BB2B3F10A
:10186000FF3F0BD0FFF7E2F9A36B5BB12046FFF718
:10187000B2FC70BD002384F84430EDE7002384F807
:101880004530EFE73246294604F1240000F048FCD9
:10189000ECE70000074B1B681B6823B9064B4FF0B1
:1018A000FF321A607047034B1B68DB681A68024BF3
:1018B0001A607047602A00200C2B002010B50446E7
:1018C000006BFFF7C7FB2046FFF7C4FB10BD2DE9F7
:1018D000F84380460C4616469946089F0A9D92009A
:1018E000A521286B01F07AFA2A6B06F18043013BAF
:1018F00002EB830323F007066CB10022092A07D804
:10190000A15CAB1883F83410A15C09B10132F5E792
:10191000002385F83D30042F08D94FF00F0383F3DF
:101920001188BFF36F8FBFF34F8FFEE7EF62AF6495
:10193000281DFFF7B4F805F11800FFF7B0F82D6186
:10194000C7F10507AF616D624A4641463046FFF771
:1019500039F92860099B03B11D60BDE8F8832DE9C2
:10196000F04385B006460F46144698469000FFF7B0
:10197000AFFA814600B35820FFF7AAFA0546B8B17E
:101980005822002101F02AFAC5F8309065B10023F1
:10199000039302950D9B01930C9B009343462246B3
:1019A00039463046FFF793FF284605B0BDE8F0837F
:1019B0004846FFF74FFBE9E70546F5E738B5002451
:1019C00007E004EB840293000E481844FFF75CF82C
:1019D0000134042CF5D90C4D2846FFF755F80B4C73
:1019E0002046FFF751F80A48FFF74EF80948FFF77D
:1019F0004BF80948FFF748F8084B1D60084B1C607E
:101A000038BD00BF682A0020E02A0020F42A002008
:101A1000182B0020442B0020302B0020602A0020AF
:101A2000642A002010B50446FFF7DEF82A4A13683E
:101A300001331360294B1B685BB1294B1B686BB9E1
:101A4000264B1B68DA6AE36A9A4207D8234B1C606C
:101A500004E0224B1C601368012B3AD0214A136822
:101A6000013313602364E36A01229A401E49086827
:101A700002430A601D4A03EB830302EB83035B68A6
:101A8000A3609868E060211D41609960E36A03EB00
:101A9000830102EB8100606152F82110013103EBF8
:101AA000830342F82310FFF7C1F80D4B1B687BB18D
:101AB0000A4B1B68DA6AE36A9A4209D24FF0E023C4
:101AC0004FF08052C3F8042DBFF34F8FBFF36F8FD9
:101AD00010BDFFF773FFC1E7CC2A00205C2A00206D
:101AE0002C2B0020D82A0020DC2A0020682A002085
:101AF0000F4B1B68D3B110B5FFF776F80D4BDB68C1
:101B0000DC68201DFEF7E7FF0B4A1368013B1360FA
:101B1000074A1368013B1360FFF788F82046FFF778
:101B2000CDFE034B1B68002BE6D110BD704700BFF4
:101B3000D02A0020442B0020CC2A002008B5FFF733
:101B4000D7FF074B1B68012BF9D94FF0E0234FF06B
:101B50008052C3F8042DBFF34F8FBFF36F8FEEE7B2
:101B6000682A00202DE9F04104460D46254B1E68E9
:101B7000254B1F68254BD3F80080254B186804308F
:101B8000FEF7A9FF50B9224B1B68DA6A012303FA5A
:101B900002F220490B6823EA02030B60B4F1FF3F15
:101BA0000DD034441A4B1B685C60A6421DD9184BFB
:101BB000196804314046FEF775FFBDE8F081002D3D
:101BC000EFD0154A5168124B1868816018688C680C
:101BD000C4601868043060601868043088601B684E
:101BE0005A61136801331360E7E7094B1968043140
:101BF0003846FEF757FF094B1B68A342DDD9074B58
:101C00001C60DAE7582B0020602A0020642A00209C
:101C10005C2A0020DC2A0020302B00200C2B002026
:101C200000B583B0DDF814C0CDF804C0DDF810C0F5
:101C3000CDF800C0FFF793FE28B1FFF7F3FE0120B7
:101C400003B05DF804FB4FF0FF30F9E710B586B044
:101C5000002303930493ADF81430082B09D8114ADC
:101C6000D25C03F11801694401F80C2C0AB101336C
:101C7000F3E718336B44002403F80C4C0120002CCC
:101C800001DD06B010BD084B03EB84030193002374
:101C90000093822203A90548FFF7C2FF0128F0D173
:101CA0000134ECE7B8580008082B00203D1B000861
:101CB00008B5FFF7CBFF012807D0012808D0B0F105
:101CC000FF3F1AD0114B1B6808BD00F007FEF4E778
:101CD0004FF00F0383F31188BFF36F8FBFF34F8F64
:101CE0000B4B4FF0FF321A600A4B01221A600A4B6D
:101CF00000221A60FEF7DAFFE4E74FF00F0383F3E8
:101D00001188BFF36F8FBFF34F8FFEE704000020F1
:101D10000C2B00202C2B0020582B0020024A13688B
:101D200001331360704700BFD42A0020014B1868AC
:101D3000704700BF582B0020F8B5524B1B68002B92
:101D400040F09980504B1C6801341C60C4B94F4B63
:101D50001B681B6843B14FF00F0383F31188BFF377
:101D60006F8FBFF34F8FFEE7484A1168484B1868E2
:101D700010601960474A136801331360FFF78AFD4A
:101D8000454B1B68A34211D90020444B1B68DB6AFA
:101D900003EB83039A00424B9B58012B00D901208F
:101DA000404B1B68002B6BD0012069E0002037E01E
:101DB000394B4FF0FF321A60E7E7374B1A60E4E720
:101DC000D968516042E000219962116801391160BF
:101DD000DA6A01219140344E376839433160304925
:101DE00002EB82024FEA820C8C44DCF804209A60F9
:101DF0009668DE6075609560DA6A02EB820C4FEAE5
:101E00008C054E195E614D5901354FEA8C0C41F835
:101E10000C50DA6A214B1B68DB6A9A4200D9012018
:101E20001A4B1B681B68002BC2D0184B1B68DB6861
:101E3000DB685A689442C0D35A699D68D968A96022
:101E40009D684D6051681D1DA942B9D0002159619E
:101E50001168013911609A6A002AB9D0DE69196ADD
:101E6000B160DE694E60566803F118018E42AAD156
:101E7000196A5160A7E70D4A136801331360002007
:101E8000F8BD00BFD42A0020582B0020602A002073
:101E9000642A0020102B00200C2B00205C2A00203C
:101EA000682A00205C2B0020DC2A0020142B002054
:101EB00038B5FEF799FE4C4B1B6843B94FF00F0342
:101EC00083F31188BFF36F8FBFF34F8FFEE7464B4D
:101ED0001A68013A1A601B68002B7FD1434B1B68BC
:101EE0003BB900247BE0196A516015E0D968516064
:101EF00021E000233E4A1268002A4AD03C4BDB68AE
:101F0000DB689A6AD869196A8160D8694860506844
:101F100003F118018842E6D0002199621168013965
:101F200011605A699868D9688160986848605168FA
:101F3000181D8142DAD00021596111680139116000
:101F4000DA6A012191402B4C2568294321602A49F6
:101F500002EB820201EB820252689A609468DC60B4
:101F600060609060DA6A02EB820001EB80045C61E1
:101F700051F82000013002EB820241F82200D96AB8
:101F80001E4A1268D26A9142B4D91D4A01211160D9
:101F9000B0E70BB1FFF77EFC1A4B1C6894B9184BE5
:101FA0001C68E4B1154B1B684FF0E0234FF08052E2
:101FB000C3F8042DBFF34F8FBFF36F8F01240EE0E2
:101FC000013C07D0FFF7B8FE0028F9D00C4B0122E6
:101FD0001A60F5E70B4B00221A60E0E70024FEF7D9
:101FE00025FE204638BD00BFD42A0020CC2A002080
:101FF000182B0020DC2A0020682A00205C2A002000
:102000005C2B0020142B002010B550B94FF0E023BA
:102010004FF08052C3F8042DBFF34F8FBFF36F8F83
:1020200010BD0446FFF77AFE0A4B1B68012B08D04F
:102030004FF00F0383F31188BFF36F8FBFF34F8F00
:10204000FEE700212046FFF78DFDFFF731FF002856
:10205000E6D1DBE7D42A0020204B1B681BB1204BC4
:1020600001221A6070471E4B00221A601D4B1B682C
:10207000B3FA83F3DBB2C3F11F0303EB83018A00DE
:1020800019498A5842B94FF00F0383F31188BFF3FF
:102090006F8FBFF34F8FFEE7134903EB830082007E
:1020A0000A4450684068506003EB830C4FEA8C028E
:1020B0000832114488420AD003EB83039A000A4B8A
:1020C00013445B68DA68094B1A601B687047624604
:1020D0009100054A0A44D1685160EDE7D42A0020F6
:1020E0005C2B0020DC2A0020682A00205C2A0020CB
:1020F00058B110B50C46094A11681831FEF7D2FCE8
:1021000001212046FFF72EFD10BD4FF00F0383F392
:102110001188BFF36F8FBFF34F8FFEE75C2A00205B
:1021200038B5D8B18C46114605464268104B186840
:10213000C261186894680462186818306060186892
:10214000183090601B689D622B6801332B6009B1C9
:102150004FF0FF3C6046FFF705FD38BD4FF00F0321
:1021600083F31188BFF36F8FBFF34F8FFEE700BF7C
:102170005C2A0020C368DB68002B4DD030B49A6A1B
:10218000D869196A8160D8694860516803F11800FC
:1021900081424AD0002199621168013911602D4AAB
:1021A0001268002A47D15A699868D968816098688E
:1021B00048605168181D81423AD000215961116868
:1021C00001391160DA6A01219140234C25682943C5
:1021D0002160224902EB820201EB820252689A607E
:1021E0009468DC6060609060DA6A02EB820001EB68
:1021F00080045C6151F82000013002EB820241F85A
:102200002200DA6A164B1B68DB6A9A421FD901204A
:10221000144B186030BC70474FF00F0383F31188E4
:10222000BFF36F8FBFF34F8FFEE7196A5160B1E7BD
:10223000D9685160C1E70C4A5168D9618C681C6249
:10224000606088609A62116801311160D9E70020EE
:10225000E0E700BFD42A0020DC2A0020682A002002
:102260005C2A00205C2B0020182B0020034B1B68ED
:102270000360034B1B684360704700BF102B0020B6
:10228000582B0020C8B170B50C460546F1B1FEF7D9
:10229000ABFC1C4B19686B68C81A2268B2F1FF3F8F
:1022A0002BD0194E3668D5F800C0B44517D08B42F4
:1022B00015D800232360012420E04FF00F0383F39F
:1022C0001188BFF36F8FBFF34F8FFEE74FF00F03FF
:1022D00083F31188BFF36F8FBFF34F8FFEE7824206
:1022E00003D800232360012408E05B1A1344236011
:1022F0002846FFF7BBFF002400E00024FEF796FC11
:10230000204670BD582B0020102B0020014B0122CD
:102310001A6070475C2B0020054B1B6833B1054BDE
:102320001B680BB1002070470220704701207047E6
:102330002C2B0020D42A0020002858D070B5044649
:10234000C36A2D4A1268D26A934248D28269002A2F
:1023500005DB294A1268D26AC2F10502826161690D
:1023600003EB8303254A02EB8303994205D0224BFA
:102370001B68DB6AE362012070BD251D2846FEF75D
:10238000AAFB40B9E26A012303FA02F21C490B6876
:1023900023EA02030B60184B1B68DB6AE36201202F
:1023A00000FA03F216490E6832430A60134A03EB3F
:1023B000830302EB83035B68A3609968E1604D606F
:1023C0009D60E36A03EB830102EB8105656152F8CE
:1023D0002110014403EB830342F82310CCE7826C05
:1023E000054B1B68DB6A9A4203D30020C4E7002038
:1023F00070470120C0E700BF5C2A0020682A002047
:10240000DC2A0020002855D070B504462B4B1B68F1
:10241000834208D04FF00F0383F31188BFF36F8F0F
:10242000BFF34F8FFEE7C36C43B94FF00F0383F345
:102430001188BFF36F8FBFF34F8FFEE7013BC3647B
:10244000C16A826C914237D00BB1002070BD051D6E
:102450002846FEF740FB40B9E26A012303FA02F284
:1024600017490B6823EA02030B60A36CE362C3F114
:102470000502A261012000FA03F211490E683243FD
:102480000A60104A03EB830302EB83035B68A360DB
:102490009968E1604D609D60E36A03EB830102EBA4
:1024A0008105656152F82110014403EB830342F872
:1024B0002310CBE7002070470020C7E75C2A0020EC
:1024C000DC2A0020682A0020002860D038B50446A5
:1024D000C36C43B94FF00F0383F31188BFF36F8FC1
:1024E000BFF34F8FFEE7826C8A4200D20A46E16A50
:1024F000914201D0012B00D038BD254B1B68A3426F
:102500003CD0E262A369002B02DBC2F10502A261AA
:10251000626901EB81011F4B03EB81018A42EBD120
:10252000251D2846FEF7D7FA40B9E26A012303FACF
:1025300002F219490B6823EA02030B60E36A0122E5
:102540009A401549086802430A60124A03EB830364
:1025500002EB83035B68A3609968E1604D609D6056
:10256000E36A03EB830102EB8100606152F8211002
:10257000013103EB830342F82310BDE74FF00F0353
:1025800083F31188BFF36F8FBFF34F8FFEE7704760
:102590005C2A0020682A0020DC2A0020034B1868EF
:1025A00010B1C36C0133C364704700BF5C2A0020C4
:1025B000064B1A6813682BB90123036023B9D3684B
:1025C000186870470023F8E700207047602B002050
:1025D00008B54160006191420CD8D21A83699A42D1
:1025E00001D3012008BD011D094B1868FEF75AFAF6
:1025F0000020F7E79A4201D2994206D2011D054B0D
:102600001868FEF74FFA0020ECE70120EAE700BF68
:10261000642B0020602B002070B504460D46164642
:1026200004E0A3691D44236A20469847A1692B460C
:10263000324629442046FFF7CBFF0028F1D170BD78
:1026400070B505460E460D4B1B68DB68DC68201D27
:10265000FEF741FA94F8283013F0040F07D123F065
:10266000010384F82830236A2046984770BD32461B
:1026700029462046FFF7D0FFF5E700BF602B00207A
:1026800008B505E0DB684FF0FF311868FFF7D8FFA9
:10269000054B1B681A68002AF4D1044A10680249E5
:1026A0000860136008BD00BF602B0020642B002071
:1026B00038B50546FFF73AFB0446074B1B688342D3
:1026C00005D800232B60044B1C60204638BDFFF763
:1026D000D7FF01232B60F6E7902B002070B582B066
:1026E00006460C46FFF71AFB01A8FFF7E1FF019B26
:1026F00033BB05460CB9B04219D224B1124A126854
:102700001268DAB901242246711B104B1868FFF7D2
:1027100097F8FFF7CDFBA8B94FF0E0234FF08052B8
:10272000C3F8042DBFF34F8FBFF36F8F0AE0FFF79D
:10273000BFFB29463046FFF783FF03E01C46E2E774
:10274000FFF7B6FB02B070BD642B0020942B002075
:1027500030B585B0002301930293039328E094F8E9
:10276000283043F0010384F82830029BA169024617
:1027700019442046FFF72CFFD0B194F8283013F00D
:10278000040F07D123F0010384F82830236A204680
:1027900098470DE0A3692A46029919442046FFF79D
:1027A0003BFFF3E794F8283023F0010384F8283046
:1027B000002201A92B4B1868FEF799FE00284ED085
:1027C000019B002BF4DB039C002CF1D0636913B157
:1027D000201DFEF780F96846FFF76AFF054601995C
:1027E00001390829E4D801A353F821F05F27000834
:1027F0005F270008A52700081128000843280008C3
:102800005F2700085F270008A52700081128000897
:1028100094F8283043F0010384F828300299A1612C
:1028200031B10346024601442046FFF7D1FEBFE71F
:102830004FF00F0383F31188BFF36F8FBFF34F8FF8
:10284000FEE794F8283013F0020F04D023F00103C0
:1028500084F82830ACE72046FEF7FCFBA8E705B07B
:1028600030BD00BF942B002000B583B001A8FFF756
:102870009FFE0199FFF732FFFFF76AFFF6E70000BE
:1028800038B5FEF7B1F90F4B1B6813B1FEF7CEF95F
:1028900038BD0D4D2846FEF7F7F80C4C2046FEF7E4
:1028A000F3F80B4B1D600B4B1C6000220C210A201F
:1028B000FEF72EFD034B18600028E7D00649FEF70F
:1028C0008FFFE3E7942B0020682B00207C2B002057
:1028D000602B0020642B0020C058000800B583B096
:1028E000FFF7CEFF0D4B1B685BB10D4B019302232D
:1028F000009300234FF482720A490B48FFF790F9C6
:1029000040B94FF00F0383F31188BFF36F8FBFF30C
:102910004F8FFEE703B05DF804FB00BF942B00204F
:10292000982B0020C85800086928000840F0BF60B4
:1029300040F40030014BD860704700BF00ED00E06C
:1029400030B5CB7803F00F02964613F0100F03D08A
:1029500091F802E04EEA020E0B7803B304680023FC
:1029600001E042610133072B18D801229A40B1F8E7
:1029700000C032EA0C05F5D14FEA830C0F2505FAA9
:102980000CF524EA05040EFA0CFC4CEA0404CD789C
:10299000282DE6D0482DE5D10261E3E704600B88DD
:1029A000FF2B25D94468002303E0CD78482D1CD0A7
:1029B0000133072B1BD803F1080C012202FA0CF299
:1029C000B1F800C032EA0C05F2D14FEA830C0F25B2
:1029D00005FA0CF524EA05040EFA0CFC4CEA040492
:1029E000CD78282DE1D14261DFE70261E0E7446064
:1029F00030BD0161704741617047000021B1054A57
:102A00009369184390617047024A936923EA000072
:102A100090617047001002400C480D490D4A002398
:102A200002E0D458C4500433C4188C42F9D30A4A83
:102A30000A4C002301E013600432A242FBD300F0F1
:102A400073F900F099F900F081F870470000002058
:102A5000DC010020145D0008DC010020B82B002000
:102A6000FEE7000070B582B0174B93E8030002AB9D
:102A700003E903001CE002AB03EB440333F8086CEA
:102A8000124D31462846FFF7B4FF4FF4FA70FFF7B6
:102A9000BBFA31462846FFF7AEFF0134E4B2032CFF
:102AA000E9D900231A46194609480068FEF75BFC7D
:102AB0004FF0FF31074B1868FEF7C8FD0F210348A0
:102AC000FFF799FF0024EAE7A85800080008014032
:102AD000A02B00209C2B002070B582B0174B93E8F0
:102AE000030002AB03E903001CE002AB03EB440369
:102AF00033F8086C124D31462846FFF77AFF4FF441
:102B0000FA70FFF781FA31462846FFF774FF013467
:102B1000E4B2032CE9D900231A4619460948006893
:102B2000FEF721FC4FF0FF31074B1868FEF78EFDD2
:102B300078210348FFF75FFF0024EAE7B058000858
:102B4000000C01409C2B0020A02B0020F0B587B08A
:102B50004FF44070FFF7EAFE01210C20FFF74EFF13
:102B600010258DF817500F27ADF8147003248DF839
:102B70001640294E05A93046FFF7E2FE3946304699
:102B8000FFF739FF8DF813507826ADF810608DF8F7
:102B90001240224D04A92846FFF7D2FE31462846AE
:102BA000FFF729FF224600210120FEF7B1FB1C4D53
:102BB0002860224600210120FEF7AAFB0346194A9D
:102BC0001060286808B303B300231A461946FEF7BD
:102BD000CAFB00240394029403AB019301260096E0
:102BE00023464FF4807210491048FFF719F8054644
:102BF00002AB0193009623464FF480720C490D48B6
:102C0000FFF70EF8B54201D0FEE7FEE7B042FBD178
:102C1000FFF74EF8F8E700BF00080140000C014044
:102C20009C2B0020A02B0020D0580008652A00080B
:102C3000DC580008D92A00087047FEE7FEE7FEE7E7
:102C4000FEE7704708B5044B1B68012B00D008BD98
:102C5000FEF702F8FBE700BF2C2B002082B0002318
:102C6000019300932C4A136843F4803313602A4B7A
:102C70001B6803F400330093019B01330193009B15
:102C80001BB9019BB3F5A06FF1D1234B1B6813F463
:102C9000003F06D001230093009B012B04D002B01B
:102CA000704700230093F7E71C4B1A6842F01002AC
:102CB0001A601A6822F003021A601A6842F00202CF
:102CC0001A60A3F580535A685A605A685A605A6865
:102CD00042F480625A605A6822F47C125A605A6840
:102CE00042F4E8125A601A6842F080721A600A4B85
:102CF0001B6813F0007FFAD0074B5A6822F00302DA
:102D00005A605A6842F002025A60034B5B6803F053
:102D10000C03082BF9D1C2E700100240002002404A
:102D200008B5FFF79BFF08BD08B5104B1A6842F0C5
:102D300001021A6059680E4A0A405A601A6822F065
:102D4000847222F480321A601A6822F480221A6097
:102D50005A6822F4FE025A604FF41F029A60FFF78D
:102D6000DFFF044B4FF000629A6008BD0010024084
:102D70000000FFF800ED00E070B500260C4D0D4C92
:102D8000641BA410A64209D102F080FD00260A4D62
:102D90000A4C641BA410A64205D170BD55F8043B33
:102DA00098470136EEE755F8043B98470136F2E7BD
:102DB0000C5D00080C5D00080C5D0008105D00084B
:102DC0000A44914200F1FF3300D1704710B511F869
:102DD000014B914203F8014FF9D110BD0346024463
:102DE000934200D1704703F8011BF9E7002B2DE94E
:102DF000F0471F46BBBF03F100431F4600232D23AE
:102E000088B01446129A109D1370149BDDF84CA0E4
:102E100023F02008B8F1460F05D0B8F1450F00D1D6
:102E20000135022300E0032307AA049206AACDE994
:102E300002A2CDE9003522463B4600F0C5FCB8F1C0
:102E4000470F064602D1119BDB0722D5B8F1460F8A
:102E500006EB050910D13378302B0AD1002200236C
:102E600020463946FDF7A0FD18B9C5F10105CAF89D
:102E70000050DAF8003099440022002320463946F9
:102E8000FDF792FD08B1CDF81C903022079B4B4511
:102E900007D33046079B159A9B1B136008B0BDE80B
:102EA000F087591C07911A70F0E70346F7B500291F
:102EB00003F8022BB6BF2D222B224942092942706A
:102EC0002BDD0DF10704A4460A2791FBF7F60A460D
:102ED000A64607FB1615632A05F13005314604F1B5
:102EE000FF340EF8015CF0DC3031AEF1020504F87D
:102EF000011C2946441C61450AD30DF10902A2EBCD
:102F00000E02654588BF00221344181A03B0F0BDB5
:102F100011F8012B04F8012FEDE7302330318370D5
:102F2000C170031DF1E700002DE9F04F91B00C4690
:102F3000DDF8688016461F46054601F033FA03683F
:102F400018460993FDF704F900230E93D8F80030D2
:102F50000A90073323F0070303F1080294F818904E
:102F6000D4F800B0C8F80020D3E90023C4E9122344
:102F7000D4E9128A2AF000430B934FF0FF32404607
:102F80009C4B0B99FDF742FD70BB4FF0FF32404662
:102F9000984B0B99FDF71CFD30BB002200234046E7
:102FA0005146FDF70BFD10B12D2384F84330924BB1
:102FB0009248B9F1470F94BF9846804603234FF0DB
:102FC000000A23612BF00403236033462146284680
:102FD00000970FAA00F0D4F9013040F090804FF034
:102FE000FF3011B0BDE8F08F42465346404651468F
:102FF000FDF70CFD48B1BAF1000FB8BF2D23804892
:10300000B8BF84F843307F4BD3E7636809F0DF0132
:103010005A1C42D106236360002206920EAACDE913
:1030200004920DAA4BF4806303920DF13302CDE9B3
:1030300001322360636842460093284653460B9151
:10304000FFF7D4FE0B99804647290D9908D1C81C7B
:1030500002DB6368994240DDA9F102095FFA89F950
:10306000B9F1650F1FD84A46013904F150000D919E
:10307000FFF71BFF0E9A82461318012A236102DC18
:103080002268D20701D5013323619DF83330002B2C
:103090009BD02D2384F8433097E74729BCD1002BE0
:1030A000BAD10123B7E7B9F1660F18D100296368D7
:1030B0000BDD216113B92268D00702D501330B441F
:1030C00023614FF0000AA165DFE713B92268D20738
:1030D00001D50233F4E70123F2E74FF067090E9BB5
:1030E000994205DB23682161D807EAD54B1CE7E745
:1030F0000029CCBF0122C1F102021344E0E723689A
:103100005A0507D42369424631462846B84701305C
:103110002BD164E7B9F1650F40F2DD80D4E91201EB
:1031200000220023FDF740FC002833D00123314664
:103130002846354AB84701303FF451AFDDE90D2349
:103140009A4202DB2368D8070FD5DDE9092331460F
:103150002846B84701303FF442AF4FF0000804F171
:103160001A090E9B013B434509DC23689B0700F1CC
:103170000281E0680F9B9842B8BF184631E70123EF
:103180004A4631462846B84701303FF428AF08F197
:103190000108E6E70D9B002B38DC01233146284669
:1031A000194AB84701303FF41AAFDDE90D23134344
:1031B00002D12368D907D8D5DDE90923314628464D
:1031C000B84701303FF40BAF4FF0000904F11A0A81
:1031D0000D9B5B424B4501DC0E9B94E7012352465D
:1031E00031462846B84701303FF4F9AE09F10109EC
:1031F000EEE700BFFFFFEF7FEC580008F058000833
:10320000F8580008F4580008FC5800080E9AA36DFE
:103210009A42A8BF1A46002A914637DC4FF0000BAD
:1032200029EAE97904F11A02D4F858A0AAEB0903B3
:103230005B4533DCDDE90D239A423BDB2368DA078B
:1032400038D40E9B0D99A3EB0A02A3EB010991451B
:10325000A8BF9146B9F1000F34DC4FF0000829EA0D
:10326000E97904F11A0ADDE90D239B1AA3EB09039E
:1032700043457FF77AAF0123524631462846B84787
:1032800001303FF4ACAE08F10108ECE713463146DB
:1032900042462846B8470130C0D1A0E60123314656
:1032A00028460B92B84701303FF499AE0B9A0BF1C8
:1032B000010BB9E73146DDE909232846B84701305B
:1032C000BFD18CE64B463146284608EB0A02B84788
:1032D0000130C2D183E60E9A012A01DCDB0737D523
:1032E0000123424631462846B84701303FF477AEC5
:1032F000DDE9092331462846B84701303FF46FAE77
:10330000D4E9120100220023FDF74EFBD8B90E9B31
:1033100008F10102013B31462846B84701300ED181
:103320005DE601234A4631462846B84701303FF45E
:1033300056AE08F101080E9B013B4345F1DC5346B4
:1033400004F15002E0E64FF0000804F11A09F2E738
:1033500001234246DFE701234A4631462846B84763
:1033600001303FF43CAE08F10108E3680F995B1AA5
:103370004345F0DCFDE64FF0000804F11909F4E7DD
:103380002DE9F047164699468A680B69074693422D
:10339000B8BF1346336091F843200C46DDF8208017
:1033A0000AB1013333602368990642BF33680233A0
:1033B0003360256815F0060506D104F1190AE368A3
:1033C00032689B1AAB4228DC94F84320131E226813
:1033D00018BF012392062DD44946384604F1430212
:1033E000C047013020D02368E56803F00603042BB2
:1033F00018BF002532684FF00006A36808BFAD1A59
:10340000226908BF25EAE5759342C4BF9B1AED18EF
:103410001A34B5421AD1002008E001235246494629
:103420003846C047013003D14FF0FF30BDE8F08788
:103430000135C4E73020E11881F843005A1C94F8A4
:1034400045102244023382F84310C5E70123224687
:1034500049463846C0470130E6D00136D9E700007A
:103460002DE9FF470F7E9146782F80460C469A46FD
:103470000C9D01F1430207D8622F0AD8002F00F0FB
:10348000D980582F00F0A48004F1420584F84270DE
:103490003AE0A7F16303152BF6D801A151F823F008
:1034A000F93400080D350008893400088934000813
:1034B00089340008893400080D3500088934000873
:1034C0008934000889340008893400081B36000854
:1034D0003D350008FD3500088934000889340008AE
:1034E0003D360008893400083D350008893400085D
:1034F00089340008053600082B681A1D1B682A60ED
:1035000004F1420584F842300123A4E020682968D0
:10351000060601F104030AD50E682B60002E03DABB
:103520002D23764284F843300A235E4819E00E6862
:1035300010F0400F2B6018BF36B2EFE72B68206801
:10354000191D2960010601D51E6802E04606FBD55B
:103550001E886F2F0CBF08230A235248002184F8CD
:1035600043106568002DA8BF2168A560A4BF21F0A5
:10357000040121600EB9002D4DD01546B6FBF3F1C4
:1035800003FB1167C75D05F8017D3746BB420E4658
:10359000F4D9082B0BD12368DE0708D523696168AD
:1035A0009942DEBF302305F8013C05F1FF35521B7F
:1035B00022614B4621464046CDF800A003AAFFF702
:1035C000DFFE01304CD14FF0FF3004B0BDE8F08792
:1035D000344881F845702968236851F8046B2960E4
:1035E0001D0614D5DF0744BF43F0200323601EB936
:1035F000236823F0200323601023AFE7236843F000
:10360000200323607823284884F84530E3E75906EF
:1036100048BFB6B2E6E71546BBE72B682668181D1B
:103620006169286035061B6801D5196002E07006E3
:10363000FBD51980002315462361BAE72B680021CA
:103640001A1D2A601D686268284600F0B7FE08B19E
:10365000401B606063682361002384F84330A8E75F
:103660002A46494640462369D0470130ABD02368FB
:103670009B0713D4E068039B9842B8BF1846A4E7A1
:103680000123324649464046D04701309BD00135A0
:10369000E36803995B1AAB42F2DCEBE7002504F127
:1036A0001906F5E7FE5800080F5900082DE9F74FF5
:1036B00003690C690746A342C0F28280013C00F115
:1036C000140501F1140805EB8403019358F8243024
:1036D00055F8242001339A42B2FBF3F64FEA840BEB
:1036E00008EB840931D34FF0000E4046AC46F24659
:1036F00050F8042B93B206FB03E3120C4FEA134E6F
:103700009BB206FB02E2AAEB0303DCF800A04FEA3F
:10371000124E1FFA8AFA5344DCF800A092B2C2EBB0
:103720001A4202EB23429BB243EA024381454FEA2D
:10373000224A4CF8043BDBD255F80B302BB9019BE5
:10374000043B9D421A462FD33C61384601F0C2F833
:10375000002825DB28464FF0000C013658F8041BE2
:10376000D0F800E08BB2ACEB03031FFA8EF21344E7
:103770000A0CC2EB1E4202EB23429BB243EA024315
:10378000C1454FEA224C40F8043BE7D255F82420CB
:1037900005EB840322B9043B9D421A460AD33C61DF
:1037A000304603B0BDE8F08F1268043B002ACBD14D
:1037B000013CC6E71268043B002AF0D1013CEBE76C
:1037C0000020EEE7000000002DE9F04F16461F46EE
:1037D000446A99B00546CDE90467DDF8948074B970
:1037E000102000F0E3FD0246686220B9EA21A84BF0
:1037F000A84801F073FAC0E901440460C4606B6A30
:10380000196851B15A68012393404A608B60284679
:1038100000F022FE00226B6A1A603B1EAFBF00233D
:10382000012223F000430593A8BFC8F80030DDF85B
:103830001490994BB8BFC8F8002033EA090319D196
:1038400042F20F73249A1360C9F31303334300F059
:103850007F85269B53B9914B22E0914B039308330C
:10386000269A1360039819B0BDE8F08F8B4B039331
:103870000333F5E7DDE90434CDE90C34DDE90C016F
:1038800000220023FDF790F8804658B10123249AC6
:103890001360269B002B00F0588582481860431E59
:1038A0000393DFE716AB019317AB00932846DDE9DE
:1038B0000C2301F0B7F8C9F30A548346002C7FD0DB
:1038C000DDE90C010D9BA4F2FF34C3F3130343F0B5
:1038D0007F5141F44011CDF84C800022724BFCF72F
:1038E00043FC65A3D3E90023FCF7F6FD64A3D3E909
:1038F0000023FCF73BFC064620460F46FCF782FD02
:1039000061A3D3E90023FCF7E7FD02460B463046EE
:103910003946FCF72BFC06460F46FDF78DF80022D2
:103920008246002330463946FDF748F848B15046F4
:10393000FCF768FD32463B46FDF736F808B90AF158
:10394000FF3ABAF1160F58D8DDE90C01574B03EBDB
:10395000CA03D3E90023FDF731F800284FD0002334
:103960000AF1FF3A0F93169B1C1B631E099349BF74
:10397000C4F1010300230693002354BF0693099367
:10398000BAF1000F3DDB099BCDF838A053440993F1
:1039900000230A93229B092B00F28C80052BC4BFC5
:1039A000043B2293229BC8BF0024A3F10203D8BF8B
:1039B0000124032B00F28A80DFE803F02D4F4D5BDA
:1039C000DDE916431C4404F23243202BC3BFC3F18C
:1039D000400304F2124009FA03F3C3F12003C6BF07
:1039E00026FA00F0184306FA03F0FCF7FBFC01236B
:1039F000A1F1F871013C13936FE70123B2E70F9037
:103A0000B1E7069BA3EB0A030693CAF100030A93EE
:103A100000230E93BEE700230B93239B002B58DC5F
:103A20004FF001094B46CDF82090CDF88C90002244
:103A3000686A4260042202F114069E4241684ED92F
:103A4000284600F0C9FC039000284CD102464FF4F0
:103A5000D571174BCCE60123DEE700230B93239BA4
:103A60000AEB030909F10103012B0893B8BF0123F5
:103A7000DDE70123F2E700BF61436F63A787D23F11
:103A8000B3C8608B288AC63FFB799F501344D33F4D
:103A90002D590008445900080000F07F29590008FA
:103AA00020590008FD5800080000F83F805A00081F
:103AB000C2590008012400230B9422934FF0FF39D0
:103AC00000221223CDF820902392B0E701230B931C
:103AD000F4E7DDF88C904B46CDF82090A7E7013154
:103AE00041605200A7E76B6A039A1A60089B0E2B8D
:103AF00000F2A880002C00F0A580BAF1000F34DDA0
:103B00009A4A0AF00F0302EBC3031AF4807FD3E949
:103B10000034CDE910344FEA2A1416D0DDE90C0147
:103B2000934B0327D3E90823FCF700FECDE90401FA
:103B300004F00F048E4E54B9DDE91023DDE90401D1
:103B4000FCF7F4FDCDE9040129E00227F2E7E107E3
:103B500008D5DDE91001D6E90023FCF7BDFCCDE96D
:103B60001001013764100836E5E700F0A580DDE9B3
:103B70000C01CAF100047D4B04F00F0203EBC203F9
:103B8000D3E90023FCF7A8FC02270023CDE90401B8
:103B9000774E2411002C40F08480002BD2D10F9B53
:103BA000002B00F08B80DDE90434CDE91034DDE931
:103BB000100100226F4BFCF701FF00287ED0089B0C
:103BC000002B7BD0B9F1000F38DDDDE910010022B8
:103BD000694BFCF781FC4C46CDE904010AF1FF3842
:103BE00001373846FCF70EFCDDE90423FCF774FCD2
:103BF0000022624BFCF7BAFAA1F15076CDE9100130
:103C00001196002C5DD1DDE9040100225C4BFCF72C
:103C1000ABFA02460B46CDE904233346109AFCF773
:103C2000EBFE002840F09C82DDE90401109A06F1C9
:103C30000043FCF7C3FE002840F09082DDE90C341D
:103C4000CDE90434179B002BC0F25281BAF10E0F5C
:103C500000F34E81454B03EBCA03D3E90034CDE9B1
:103C60000634239B002B80F2DB80089B002B00F3A3
:103C7000D78040F07282DDE906010022404BFCF75C
:103C80002BFCDDE90423FCF7ADFE089C264600284A
:103C900040F048823123039F0AF1010A07F8013BF3
:103CA00044E2E20705D5D6E90023FCF715FC012321
:103CB0000137641008366DE7022770E7D046089C8C
:103CC0008FE70399294B214412910B9903EBC4030D
:103CD000DDE9106753E90223002955D00020294966
:103CE000FCF724FD3B463246FCF73EFACDE91001D5
:103CF000039FDDE90401FCF79FFE0446FCF782FB0D
:103D000002460B46DDE90401FCF72EFA02460B469B
:103D10003034CDE90423DDE9102307F8014BFCF72B
:103D20004DFE002874D1DDE9042300201149FCF781
:103D30001BFADDE91023FCF741FE002840F0B780B4
:103D4000129B9F423FF47AAFDDE9100100220A4B3B
:103D5000FCF7C2FB0022CDE91001DDE90401064BAE
:103D6000FCF7BAFBCDE90401C3E700BF805A0008A5
:103D7000585A00080000F03F0000244000001C409A
:103D8000000014400000E03F30463946FCF7A4FB39
:103D9000129BCDE91001039C1493DDE90401FCF7AB
:103DA0004BFE1590FCF72EFB02460B46DDE90401A5
:103DB000FCF7DAF9159B0646303304F8013B129BF9
:103DC0000F469C424FF0000224D1DDE91001B04BB8
:103DD000FCF7CCF902460B4630463946FCF70CFEA0
:103DE000002863D1DDE910230020A949FCF7BCF9C4
:103DF00002460B4630463946FCF7E0FD00283FF40A
:103E00001DAF149F7B1E149317F8013C302BF8D084
:103E1000C2463BE09F4BFCF75FFBCDE90401BCE7EA
:103E2000039FDDE90489DDE9062340464946FCF7A6
:103E30007DFCFCF701FE0446FCF7E4FADDE906230D
:103E4000FCF74AFB02460B4640464946FCF78CF914
:103E500004F1300607F8016B039EDDF820C0BE1B9D
:103E6000B44502460B4636D1FCF780F9DDE906235E
:103E700080468946FCF7C0FD58BBDDE90623404675
:103E80004946FCF791FD08B1E10722D4284659467E
:103E900000F0E2FA00233B70249B0AF10100186055
:103EA000269B002B3FF4DEAC1F60DBE427463B463D
:103EB0001F4613F8012D392A07D1039A9A42F7D1E8
:103EC0003022039908F101080A701A7801321A7039
:103ED0009EE7D046EBE700226E4BFCF7FDFA00228E
:103EE000002380468946FCF75FFD00289BD0CDE784
:103EF0000B9A002A00F0D080229A012A00F3AE80AB
:103F0000139A002A00F0A68003F233430A9C069F0E
:103F1000069A01211A440692099A28461A440992DF
:103F200000F050FB0646002F0CDD099B002B09DD3D
:103F3000BB42A8BF3B46069AFF1AD21A0692099ABC
:103F4000D31A09930A9BF3B10B9B002B00F0A880B6
:103F5000002C10DD31462246284600F0F1FB5A467F
:103F600001460646284600F043FB8046594628464F
:103F700000F072FAC3460A9B1A1B04D05946284621
:103F800000F0DEFB83460121284600F01BFB0E9B60
:103F90000446002B40F386801A460146284600F06E
:103FA000CFFB229B0446012B7FDD4FF000082369E5
:103FB00004EB8303186900F0B7FAC0F12000099BF5
:103FC000184410F01F0000F09280C0F12003042B71
:103FD00040F38A80C0F11C00069B0744034406930B
:103FE000099B03440993069B002B05DD59461A469D
:103FF000284600F0FFFB8346099B002B05DD214688
:104000001A46284600F0F6FB04460F9B002B70D0A2
:104010002146584600F05EFC00286ADA0023594623
:104020000A22284600F03AFA0B9B83460AF1FF3A2F
:10403000002B00F09481314600230A22284600F02C
:104040002DFAB9F1000F064600F39380229B022B54
:1040500057DC8EE0169BC3F1360357E7089B5C1EC6
:104060000A9BA342B7BF0A9B1C1BE21A0E9BBEBF52
:104070000A949B180E93089BB8BF0024002BBBBF6B
:10408000069B089A069F9F1AACBF089B00233FE738
:104090000000E03F000024400A9C069F0B9E42E780
:1040A0000A9A6BE7229B012B19DC049BBBB9059B89
:1040B000C3F313039BB9059B23F000431B0D1B05A2
:1040C00083B14FF00108069B01330693099B01332E
:1040D00009930E9B002B7FF46AAF01206FE74FF02E
:1040E0000008F6E79846F4E73FF47DAF18461C3029
:1040F00072E7089B002B36DC229B022B33DDDDF8B8
:104100002090B9F1000F0DD121464B4605222846DB
:1041100000F0C4F901460446584600F0DBFB0028D5
:104120003FF7B8AD239B039F6FEA030A4FF00008E7
:104130002146284600F090F9002E3FF4A7AEB8F1D2
:10414000000F05D0B04503D04146284600F084F961
:104150003146284600F080F998E600242646E1E73B
:10416000C246264696E50B9BDDF82090002B00F01A
:10417000FD80002F05DD31463A46284600F03AFB27
:104180000646B8F1000F5CD02846716800F024F9AB
:10419000074628B9024640F2EA217F4BFFF728BBC9
:1041A000326906F10C01023292000C30FEF708FE73
:1041B00001223946284600F01DFBB0460646039B07
:1041C00001330893039B4B440A93049B03F00103C0
:1041D0000993089B2146013B58460493FFF766FA72
:1041E000034641463033069058460B9300F072FB6D
:1041F000324681462146284600F088FBC2680746C1
:104200000B9B02BB0146584600F064FB02460B9B29
:1042100039462846CDE90B3200F01EF9229B0C9A54
:10422000089F43EA0201099B0B430B9B0DD1392BDD
:1042300029D0B9F1000F01DD069B3133049A1370C8
:1042400076E73046B9E70122E2E7B9F1000F06DB75
:10425000229941EA0909099959EA010120D1002A64
:10426000ECDD594601222846089300F0C3FA2146A6
:10427000834600F02FFB0028089B02DCDED1DA0722
:10428000DCD5392BD8D13923049A13703B461F460D
:1042900017F8012C013B392A50D001321A7047E738
:1042A000002A03DD392BEED00133C7E7089A0A99BB
:1042B00002F8013C8A422AD0594600230A222846A5
:1042C00000F0ECF8B04583464FF000034FF00A02CF
:1042D0004146284607D100F0E1F880460646089B93
:1042E0000133089375E700F0D9F831468046002382
:1042F0000A22284600F0D2F80646F0E7B9F1000F8E
:10430000CCBF4F4601274FF00008039A1744594687
:1043100001222846089300F06DFA2146834600F0FA
:10432000D9FA0028B2DC02D1089BDB07AED43B46A9
:104330001F4613F8012D302AFAD0F9E6039A9A4263
:10434000A5D131230AF1010A79E7144BFFF7A8BA86
:10435000269B002B7FF481AA114BFFF7A1BAB9F17C
:10436000000F03DC229B022B3FF7CBAE039F2146BD
:104370005846FFF79BF9039A00F1300307F8013B19
:10438000BA1A9145BADD594600230A22284600F0A0
:1043900085F88346EBE700BFC2590008FC580008C7
:1043A000205900080048704760010020024B014678
:1043B000186800F00FBC00BF0C000020034610B5C9
:1043C000C9B202449342184601D1002003E00478A8
:1043D00001338C42F6D110BD70B5466A04460D46D5
:1043E00076B91020FFF7E2FF0246606220B966212D
:1043F000174B184800F072FCC0E901660660C66001
:10440000666AF36883B1636ADB6853F82500B8B95C
:10441000012101FA05F6721D2046920000F05EFBB4
:1044200060B1C0E901560EE021220421204600F0CF
:1044300055FB636AF060DB68002BE4D1002070BD9F
:10444000026843F825200023C0E90333F7E700BFE3
:104450002D590008D359000870B5466A05460C4628
:1044600076B91020FFF7A2FF0246686220B98A21C0
:10447000084B094800F032FCC0E901660660C660DE
:104480003CB16B6A6268DB6853F82210216043F824
:10449000224070BD2D590008D35900082DE9F04184
:1044A00007460C461E4600200D6901F1140CDCF88D
:1044B0000030013099B202FB01611E0C0B0C02FBB3
:1044C000063389B201EB034185424FEA13464CF8AB
:1044D000041BECDC0EB3A368AB4219DC6168384600
:1044E0000131FFF779FF804628B90246B5210C4B10
:1044F0000C4800F0F3FB226904F10C010232920037
:104500000C30FEF75DFC21463846FFF7A5FF444618
:1045100004EB850301355E6125612046BDE8F0812D
:10452000C2590008D3590008020C12040346CAB944
:104530000304102013F07F4F04BF1B02083013F058
:10454000704F04BF1B01043013F0404F04BF9B00A9
:104550000230002B05DB13F0804F00F1010008BF93
:10456000202070470020E5E70368024613F00700AB
:104570000BD0D90721D4980749BF5B089B080120BD
:1045800013605CBF02201360704799B209B9102014
:104590001B0CD9B209B908301B0A190704BF1B0943
:1045A0000430990704BF9B080230D90703D45B0885
:1045B00000F1010003D013607047002070472020F5
:1045C0007047000010B50C460121FFF705FF0246B9
:1045D00028B94FF4A071044B044800F07FFB01237D
:1045E0004461036110BD00BFC2590008D3590008DF
:1045F0002DE9F04F91460A69D9F810300C469A42DD
:10460000BEBF0B464C4699462769D9F810A0A3684F
:10461000616807EB0A06B34285B0B8BF0131FFF706
:10462000DBFE30B9024640F25D11434B434800F0D7
:1046300055FB00F114052B46002205EB8608434587
:1046400021D304F1140303EB870709F1140303EBEF
:104650008A0202923A1B153A22F00302043204F154
:1046600015018F4238BF04220192029A03939A42A5
:104670000CD8002E03DD58F8043D002B59D00661FC
:1046800005B0BDE8F08F43F8042BD8E7B3F800A0DD
:10469000BAF1000F23D0A9464FF0000C04F1140E1C
:1046A0005EF8042BD9F800101FFA82FB89B20AFBCE
:1046B0000B116144D9F800C0120C4FEA1C4C0AFBE4
:1046C00002C202EB114289B241EA024177454FEA48
:1046D000124C49F8041BE3D8019A45F802C0039A2A
:1046E0000433B2F80290B9F1000F20D0AE464FF07B
:1046F000000A296804F1140CBCF800B0BEF80220CE
:1047000089B209FB0B22924441EA0A414EF8041B8C
:104710005CF8042BBEF80010120C09FB021167456F
:1047200001EB1A414FEA114AE6D8019AA950043523
:104730009BE7013E9DE700BFC2590008D35900081E
:104740002DE9F843154612F0030206460F4607D03E
:10475000254C013A002354F82220FFF79FFE07461C
:10476000AD103DD0746A7CB91020FFF71FFE0246E1
:10477000706228B94FF4D7711C4B1D4800F0AEFA97
:10478000C0E901440460C460D6F82480D8F8084029
:104790004CB940F271213046FFF714FF0023044664
:1047A000C8F8080003604FF00009EB070AD5394646
:1047B00022463046FFF71CFF804639463046FFF759
:1047C0004BFE47466D100BD0206838B92246214673
:1047D0003046FFF70DFF2060C0F800900446E4E784
:1047E0003846BDE8F88300BF485B00082D59000833
:1047F000D35900082DE9F0470C4607469146236936
:10480000496803EB6218A3684FEA621A08F10106CF
:10481000B3420BDB3846FFF7DFFD054648B90246D9
:1048200040F2D911294B2A4800F058FA01315B00B7
:10483000EEE7002300F1140100F110021846534581
:1048400037DB20692AEAEA7A04F1140319F01F0918
:1048500001EB8A0103EB80002FD08A464FF0000C59
:10486000C9F1200E1A6802FA09F242EA0C024AF86B
:10487000042B53F8042B984222FA0EFCF2D8031BA7
:10488000153B23F00303043304F11502904238BFB3
:10489000042341F803C0BCF1000F01D008F1020667
:1048A000013E384621462E61FFF7D6FD2846BDE879
:1048B000F08742F8040F0133C1E7043953F8042BA1
:1048C000984241F8042FF9D8EAE700BFC25900081E
:1048D000D359000803460A69006930B5801A0DD122
:1048E0001433143103EB820401EB820154F8045DAC
:1048F00051F8042D954202D004D3012030BDA342CB
:10490000F4D3FBE74FF0FF30F8E700002DE9F84F54
:104910000D460746114628461446FFF7DBFF061EE4
:1049200011D131463846FFF757FD024628B940F20B
:1049300032213A4B3A4800F0D1F90123C0E904365C
:104940001046BDE8F88FA4BF23462C463846616860
:10495000A6BF1D4600260126FFF73EFD024618B9F8
:104960004FF410712D4BE5E702F11408C2464FF0E9
:10497000000C2769C6602E6904F1140005F11409C2
:1049800000EB870E09EB8606103454F804BF59F883
:10499000043B1FFA8BF18C4499B21B0CACEB010168
:1049A000C3EB1B4303EB214389B24FEA234C4E4533
:1049B00041EA03434AF8043BE7D8731B153B23F055
:1049C000030315350433AE4238BF0423184443446F
:1049D0001E46054675450ED30EF10301091A21F056
:1049E00003010338864538BF0021194451F8043DBE
:1049F0008BB11761A4E755F8048B1FFA88F1614465
:104A00000C1404EB184489B241EA04414FEA244CE7
:104A100046F8041BDEE7013FE8E700BFC259000883
:104A2000D35900082DE9F3410121DDE908769046CC
:104A30001D46FFF7D1FC044630B9024640F20A3168
:104A4000244B254800F04AF9C5F31303C5F30A5572
:104A50002DBB0193B8F1000326D068460093FFF701
:104A600083FD0099F0B1019AC0F1200302FA03F32B
:104A70000B43C24063610192019B002B14BF0221D2
:104A80000121A3612161C5B1A5F233450544C0F1FF
:104A900035003D603060204602B0BDE8F08143F44F
:104AA0008013D6E76161E7E701A8FFF75DFD01210B
:104AB000019B216163612030E5E704EB8103A0F2F3
:104AC000324038601869FFF72FFDC0EB41113160AB
:104AD000E1E700BFC2590008D359000870B5A1FB37
:104AE000025434B9294600F075F8064628B9304614
:104AF00070BD0C2200260260F9E72A462146FEF727
:104B00006DF9F4E738B50546002940D051F8043C6A
:104B10000C1F002BB8BFE41800F022F91C4A1368E0
:104B200033B9636014602846BDE8384000F01EB910
:104B3000A34208D9206821188B4201BF19685B681D
:104B400009182160EDE71A465B680BB1A342FAD958
:104B500011685018A0420BD12068014450188342BC
:104B60001160E0D118685B68014411605360DAE7B6
:104B700002D90C232B60D6E7206821188B4201BF95
:104B800019685B680918216063605460CBE738BD21
:104B9000A42B002070B50E4E0C463168054611B9A5
:104BA00000F08CF830602146284600F087F8431C5E
:104BB0000AD0C41C24F00304A04207D0211A2846BE
:104BC00000F07CF8013001D14FF0FF34204670BD79
:104BD000A82B00202DE9F041CD1C25F00305083558
:104BE0000C2D38BF0C25002D074601DBA94205D945
:104BF0000C2300263B603046BDE8F0812E4E00F0CD
:104C0000AFF833681C4634BB29463846FFF7C2FF6D
:104C1000431C04464DD134682646002E40D12368FB
:104C20003146384604EB030800F048F880453AD195
:104C3000216803356D1A25F0030508350C2D38BFA2
:104C40000C2538462946FFF7A5FF01302BD02368F5
:104C50002B4423600EE02268521B1ED40B2A16D967
:104C60006119A342256018BF5960636808BF3160AD
:104C700062514B60384604F10B0600F077F826F0DD
:104C80000706231DF21AB6D09B1BA350B3E7626838
:104C9000A3420CBF32605A60ECE723466468B2E777
:104CA00034467668B9E70C2338463B6000F05EF87E
:104CB000A1E72560DEE700BFA42B002038B5002364
:104CC000054D044608462B6000F0C8FD431C02D188
:104CD0002B6803B1236038BDAC2B00201FB51446F0
:104CE0001A46094B05461B68D8684CB1074BCDE9FD
:104CF000013400912B46064900F00EF800F062FAEC
:104D0000044B1C46F3E700BF0C000020545B000876
:104D1000615B00088F5B00080EB403B5014603AB6E
:104D2000054853F8042B0068019300F04DF802B0D9
:104D30005DF804EB03B070470C00002082B001B9AD
:104D400001A942B14BB113780B601278101E18BF45
:104D5000012002B070471046FBE76FF00100F8E752
:104D6000014800F0EBBB00BFB02B0020014800F071
:104D7000E6BB00BFB02B0020936810B4013B002BB2
:104D8000936007DA9469A34201DB0A2902D110BCBF
:104D900000F04AB91368581C10601970084610BC1E
:104DA0007047F8B506460F461446D518AC4201D1F7
:104DB000002007E03A46304614F8011BFFF7DCFFFD
:104DC000431CF3D1F8BD00002DE9F04F0D46144609
:104DD000984606469DB018B183690BB900F010FBE8
:104DE000894B9D421BD175686B6ED90705D4AB8981
:104DF0009A0502D4A86D00F0A1FBAB891B0701D571
:104E00002B69EBB92946304600F06EF9C0B16B6EE4
:104E1000DC070ED54FF0FF301DB0BDE8F08F7B4BA7
:104E20009D4201D1B568DFE7794B9D4208BFF56827
:104E3000DAE7AB899805EDD4A86D00F080FBE9E7CF
:104E40000023099320238DF8293030234FF00109E6
:104E5000CDF80C80DFF8BC818DF82A3023469A46C5
:104E600013F8012B0AB1252AF9D1BAEB040B0BD0A8
:104E70005B46224629463046FFF793FF013000F09B
:104E8000AA80099A5A4409929AF80030002B00F03F
:104E9000A28000234FF0FF32CDE905230AF1010A79
:104EA000049307938DF853301A935446052214F84F
:104EB000011B5848FFF782FA049AD8B9D10644BFBB
:104EC00020238DF85330130744BF2B238DF8533024
:104ED0009AF800302A2B15D0544600204FF00A0CC7
:104EE000079A214611F8013B303B092B4ED9B0B14E
:104EF000079214E0A0EB080309FA03F31343A24658
:104F00000493D2E7039B191D1B680391002BBBBFC1
:104F10005B4242F0020207930793B8BF04922378E2
:104F20002E2B0CD163782A2B35D1039B02341A1D0A
:104F30001B680392002BB8BF4FF0FF330593DFF8D7
:104F4000D8A0032250462178FFF738FA40B1402319
:104F5000A0EB0A0003FA00F0049B0134034304931E
:104F600014F8011B06222D488DF82810FFF726FAA9
:104F700000283FD02A4B1BBB039B073323F00703BA
:104F800008330393099B3B44099367E70C460120D0
:104F90000CFB0232A5E700234FF00A0C194601343E
:104FA0000593204610F8012B303A092A03D9002B2B
:104FB000C5D00591C3E7044601230CFB0121F0E7AE
:104FC00003AB00932A463046164B04A9FDF7ACFF0D
:104FD0000746781CD6D16B6ED90705D4AB899A05E4
:104FE00002D4A86D00F0ABFAAB895B063FF512AFB7
:104FF000099811E703AB00932A463046094B04A9F0
:10500000FEF72EFAE4E700BFCC5C0008EC5C000879
:10501000AC5C00089A5B0008A05B0008A45B000879
:10502000292F0008A34D0008F8B50E461446054682
:1050300018B183690BB900F0E3F9214B9C422BD1E5
:105040006C68A369A360A3891A072FD523696BB382
:1050500023692068F6B2C01A63693746834204DCCC
:105060002146284600F038F930BBA3680130013BE7
:10507000A36023685A1C22601E706369834204D0B7
:10508000A389DB0706D50A2E04D12146284600F065
:1050900023F988B93846F8BD0A4B9C4201D1AC6867
:1050A000CFE7094B9C4208BFEC68CAE72146284677
:1050B00000F01AF80028CBD04FF0FF37EAE700BF26
:1050C000CC5C0008EC5C0008AC5C000803460846B9
:1050D00041B1FF2A04D98A224FF0FF301A6070478D
:1050E00001200A7070470000324B70B51D680646FB
:1050F0000C4625B1AB6913B9284600F081F92E4B57
:105100009C420FD16C68A389B4F90C2019072CD4E8
:10511000DD0611D40923336042F040034FF0FF3025
:10512000A3813EE0254B9C4201D1AC68EBE7244BC8
:105130009C4208BFEC68E6E7580712D5616B41B1A5
:1051400004F14403994202D03046FFF7DBFC002310
:105150006363A38923F02403A3810023636023698D
:105160002360A38943F00803A38123694BB9A38972
:1051700003F42073B3F5007F03D02146304600F0DE
:1051800005FAA089B4F90C2010F001030AD000231D
:10519000A36063695B42A361236943B910F0800097
:1051A000BAD170BD810758BF6369A360F4E70020DE
:1051B000F7E700BF0C000020CC5C0008EC5C0008A6
:1051C000AC5C0008062008B500F048FA012000F0A9
:1051D0005BFB00008A89F8B5054610070C4657D4DA
:1051E0004B68002B04DC0B6C002B01DC0020F8BDAD
:1051F000E66A002EFAD0002312F480522F682B604A
:1052000032D0606DA3895A0705D56368C01A636BF5
:105210000BB1236CC01A00230246E66A2846216AB5
:10522000B047431CA38906D129681D292CD8294AD7
:10523000CA40D60728D5002262602269D9042260BC
:1052400004D5421C01D12B6803B96065616B2F60E6
:105250000029CBD004F14403994202D02846FFF73D
:1052600051FC00206063C2E7216A01232846B04751
:10527000411CC7D12B68002BC4D01D2B01D0162B8D
:1052800001D12F60B2E7A38943F04003A381AEE7C9
:105290000F69002FAAD0930718BF00230E6808BF1C
:1052A0004B69F61B0F608B60002E9FDD33463A463C
:1052B0002846216AD4F828C0E047002806DCA389E4
:1052C0004FF0FF3043F04003A38190E70744361AC4
:1052D000EAE700BF0100402038B50B6905460C46DF
:1052E00013B90025284638BD18B183690BB900F001
:1052F00087F8144B9C421BD16C68B4F90C30002B1E
:10530000EFD0626ED00704D4990502D4A06D00F0EE
:1053100015F928462146FFF75DFF636E0546DA075B
:10532000E0D4A3899B05DDD4A06D00F008F9D9E78E
:10533000054B9C4201D1AC68DFE7044B9C4208BF9F
:10534000EC68DAE7CC5C0008EC5C0008AC5C0008B8
:10535000002310B50446C0E90033C0E9043383607C
:1053600081814366C2818361194608225C30FDF762
:1053700035FD054B24626362044BA362044BE36278
:10538000044B236310BD00BF95560008B7560008B4
:10539000EF56000813570008014900F0AFB800BFEE
:1053A000D9520008682270B54D1E55430E4605F1CE
:1053B0007401FFF70FFC044640B10021C0E900165C
:1053C0000C30A06005F16802FDF708FD204670BDB5
:1053D000014800F0B3B800BFB12B0020014800F035
:1053E000AEB800BFB12B0020014800F0A7B800BF45
:1053F000B22B0020014800F0A2B800BFB22B002061
:1054000010B50446FFF7F0FFA3691BB1BDE81040DB
:10541000FFF7F0BFC4E912332365134B134A1B682F
:10542000A262A34208BF0123204608BFA36100F087
:105430001FF86060204600F01BF8A060204600F0D6
:1054400017F800220421E0606068FFF781FF012265
:105450000921A068FFF77CFF02221221E068FFF714
:1054600077FF0123A361D1E7E858000899530008AA
:10547000F8B50746FFF7ACFF1E4B1E68B36913B9BA
:105480003046FFF7BDFF4836D6E90134013B03D56E
:1054900033680BB33668F7E7B4F90C50D5B9164B3F
:1054A00004F15800E360656600F047F8FFF796FFE7
:1054B00008222946C4E90155C4E904552560A561BF
:1054C00004F15C00FDF78AFCC4E90D55C4E91255EE
:1054D0002046F8BD6834D9E704213846FFF762FF5B
:1054E000044630600028D5D1FFF778FF0C233B60DD
:1054F000EEE700BFE85800080100FFFF2DE9F84380
:1055000006468846002700F14804D4E90195B9F120
:10551000010905D52468002CF7D13846BDE8F88389
:10552000AB89012B07D9B5F90E30013303D02946D9
:105530003046C04707436835E9E770477047704712
:1055400070B50E46B1F90E10144600291D4696B0EE
:1055500008DA0022B6F90C302A601A0610D44FF48B
:1055600080630EE06A4600F0FBF80028F1DB019A48
:1055700002F47042A2F500535A425A412A60EEE703
:1055800040230020236016B070BD00008B8973B5E6
:105590009D0706460C4607D504F1470323602361A7
:1055A0000123636102B070BD6A4601ABFFF7C8FF1B
:1055B000009905463046FFF70DFB48B9B4F90C30A9
:1055C0009A05EFD423F0030343F00203A381E3E73A
:1055D0000D4BB362A389206043F08003A381009B3D
:1055E00020616361019B5BB13046B4F90E1000F09D
:1055F000C9F828B1A38923F0030343F00103A38171
:10560000A0890543A581CDE7995300081F2938B526
:1056100004460D4604D9162303604FF0FF3038BD11
:10562000426C12B152F821304BB9204600F030F8EC
:105630002A4601462046BDE8384000F017B8012B45
:105640000AD0591C03D1162303600120E7E7002488
:10565000284642F8254098470020E0E7024B0146E3
:105660001868FFF7D3BF00BF0C00002038B5002337
:10567000064D0446084611462B6000F0D7F8431C3F
:1056800002D12B6803B1236038BD00BFAC2B0020D2
:1056900000F0BCB810B50C46B1F90E1000F094F84B
:1056A0000028ABBF636DA3891B1823F48053ACBFE4
:1056B0006365A38110BD2DE9F0411F468B89054626
:1056C000DB050C46164605D502230022B1F90E1063
:1056D00000F068F8A389324623F48053A38128465A
:1056E0003B46B4F90E10BDE8F04100F017B810B514
:1056F0000C46B1F90E1000F055F8431CA38915BFF4
:10570000606523F4805343F48053A38118BFA381C1
:1057100010BDB1F90E1000F013B8000038B5044602
:10572000084611460022054D2A601A4600F0A4F8EA
:10573000431C02D12B6803B1236038BDAC2B002081
:1057400038B50023054D044608462B6000F04EF89E
:10575000431C02D12B6803B1236038BDAC2B002061
:1057600038B50023064D0446084611462B6000F06C
:1057700045F8431C02D12B6803B1236038BD00BF3C
:10578000AC2B002038B50023054D044608462B609D
:1057900000F044F8431C02D12B6803B1236038BDEC
:1057A000AC2B002038B50446084611460022054DB2
:1057B0002A601A4600F042F8431C02D12B6803B15C
:1057C000236038BDAC2B002038B50446084611468E
:1057D0000022054D2A601A4600F038F8431C02D119
:1057E0002B6803B1236038BDAC2B00205822024B3C
:1057F0004FF0FF301A607047AC2B00205822024B4C
:105800004FF0FF301A607047AC2B00205822024B3B
:105810004FF0FF301A607047AC2B00205822024B2B
:1058200000201A60704700BFAC2B00205822024BAA
:105830004FF0FF301A607047AC2B00205822024B0B
:105840004FF0FF301A607047AC2B00205822024BFB
:105850004FF0FF301A607047AC2B0020044A054916
:105860001368002B08BF0B46184410601846704799
:10587000B42B0020B82B00205822024B4FF0FF30F1
:105880001A607047AC2B0020FEE700BFF8B500BFE0
:10589000F8BC08BC9E467047F8B500BFF8BC08BC11
:0458A0009E46704769
:1058A8000100020004000800080010002000400069
:1058B80049444C4500000000546D7251000000003E
:1058C800546D7220537663007461736B5F6C65640A
:1058D800310000007461736B5F6C65643200000016
:1058E80010000020494E4600696E66004E414E0089
:1058F8006E616E0030003031323334353637383926
:105908004142434445460030313233343536373826
:105918003961626364656600496E66696E697479A7
:10592800004E614E005245454E54206D616C6C6FBF
:105938006320737563636565646564002F6D6E74B9
:105948002F776F726B73706163652F776F726B73EC
:10595800706163652F4743432D31302D7069706541
:105968006C696E652F6A656E6B696E732D4743436C
:105978002D31302D706970656C696E652D33333843
:105988005F32303231313031385F3136333435318E
:10599800363230332F7372632F6E65776C69622FDE
:1059A8006E65776C69622F6C6962632F7374646CBF
:1059B80069622F64746F612E630042616C6C6F635F
:1059C80020737563636565646564002F6D6E742F5D
:1059D800776F726B73706163652F776F726B73701B
:1059E8006163652F4743432D31302D706970656CB5
:1059F800696E652F6A656E6B696E732D4743432D1B
:105A080031302D706970656C696E652D3333385F80
:105A180032303231313031385F3136333435313626
:105A28003230332F7372632F6E65776C69622F6E15
:105A380065776C69622F6C6962632F7374646C6933
:105A4800622F6D707265632E630000000000000015
:105A58000080E03779C34143176E05B5B5B8934662
:105A6800F5F93FE9034F384D321D30F94877825A2E
:105A78003CBF737FDD4F1575000000000000F03F4C
:105A88000000000000002440000000000000594011
:105A98000000000000408F40000000000088C34064
:105AA80000000000006AF8400000000080842E41D9
:105AB80000000000D01263410000000084D7974125
:105AC8000000000065CDCD41000000205FA002422B
