:020000040800F2
:1000000000500020C9250008612700086327000868
:10001000652700086727000869270008000000001E
:10002000000000000000000000000000110B0008AC
:100030006B27000800000000B10B00086D270008C6
:1000400011260008112600081126000811260008B4
:1000500011260008112600081126000811260008A4
:100060001126000811260008112600081126000894
:100070001126000811260008112600081126000884
:100080001126000811260008112600081126000874
:100090001126000811260008112600081126000864
:1000A0001126000811260008112600081126000854
:1000B0001126000811260008112600081126000844
:1000C0001126000811260008112600081126000834
:1000D0001126000811260008112600081126000824
:1000E0001126000811260008112600080000000053
:1000F0000000000000000000000000000000000000
:0C01000000000000000000005FF808F1A3
:1001100010B5054C237833B9044B13B10448AFF341
:1001200000800123237010BDD801002000000000D2
:100130009C53000808B5034B1BB103490348AFF3B8
:10014000008008BD00000000DC0100209C53000876
:10015000034613F8012B002AFBD1181A0138704707
:1001600081F0004102E000BF83F0004330B54FEA68
:1001700041044FEA430594EA050F08BF90EA020FD5
:100180001FBF54EA000C55EA020C7FEA645C7FEA68
:10019000655C00F0E2804FEA5454D4EB5555B8BF8B
:1001A0006D420CDD2C4480EA020281EA030382EAFC
:1001B000000083EA010180EA020281EA0303362D8E
:1001C00088BF30BD11F0004F4FEA01314FF4801C61
:1001D0004CEA113102D0404261EB410113F0004F73
:1001E0004FEA03334CEA133302D0524263EB43032A
:1001F00094EA050F00F0A780A4F10104D5F1200EC8
:100200000DDB02FA0EFC22FA05F2801841F1000122
:1002100003FA0EF2801843FA05F359410EE0A5F1F6
:1002200020050EF1200E012A03FA0EFC28BF4CF027
:10023000020C43FA05F3C01851EBE37101F00045DD
:1002400007D54FF0000EDCF1000C7EEB00006EEBEA
:100250000101B1F5801F1BD3B1F5001F0CD3490874
:100260005FEA30004FEA3C0C04F101044FEA4452CB
:1002700012F5800F80F09A80BCF1004F08BF5FEA52
:10028000500C50F1000041EB045141EA050130BD32
:100290005FEA4C0C404141EB0101013C28BFB1F544
:1002A000801FE9D291F0000F04BF01460020B1FA8F
:1002B00081F308BF2033A3F10B03B3F120020CDA62
:1002C0000C3208DD02F1140CC2F10C0201FA0CF040
:1002D00021FA02F10CE002F11402D8BFC2F1200CA5
:1002E00001FA02F120FA0CFCDCBF41EA0C0190405B
:1002F000E41AA2BF01EB0451294330BD6FEA0404A4
:100300001F3C1CDA0C340EDC04F11404C4F120028E
:1003100020FA04F001FA02F340EA030021FA04F3A0
:1003200045EA030130BDC4F10C04C4F1200220FAF7
:1003300002F001FA04F340EA0300294630BD21FA35
:1003400004F0294630BD94F0000F83F4801306BFFB
:1003500081F480110134013D4EE77FEA645C18BFEF
:100360007FEA655C29D094EA050F08BF90EA020F86
:1003700005D054EA000C04BF1946104630BD91EA7E
:10038000030F1EBF0021002030BD5FEA545C05D181
:100390004000494128BF41F0004130BD14F58004C0
:1003A0003CBF01F5801130BD01F0004545F0FE4134
:1003B00041F470014FF0000030BD7FEA645C1ABF69
:1003C000194610467FEA655C1CBF0B46024650EAA0
:1003D000013406BF52EA033591EA030F41F40021CC
:1003E00030BD00BF90F0000F04BF0021704730B552
:1003F0004FF4806404F132044FF000054FF0000127
:1004000050E700BF90F0000F04BF0021704730B5E7
:100410004FF4806404F1320410F0004548BF4042BC
:100420004FF000013EE700BF42004FEAE2014FEA11
:1004300031014FEA02701FBF12F07F4393F07F4FEC
:1004400081F06051704732F07F4208BF704793F0EF
:100450007F4F04BF41F40021704730B54FF4607402
:1004600001F0004521F000411CE700BF50EA010205
:1004700008BF704730B54FF000050AE050EA0102AE
:1004800008BF704730B511F0004502D5404261EB1E
:1004900041014FF4806404F132045FEA915C3FF45F
:1004A000D8AE4FF003025FEADC0C18BF03325FEAFC
:1004B000DC0C18BF033202EBDC02C2F1200300FAAD
:1004C00003FC20FA02F001FA03FE40EA0E0021FAD2
:1004D00002F11444BDE600BF70B54FF0FF0C4CF4C0
:1004E000E06C1CEA11541DBF1CEA135594EA0C0F72
:1004F00095EA0C0F00F0DEF82C4481EA030621EAAD
:100500004C5123EA4C5350EA013518BF52EA0335E7
:1005100041F4801143F4801338D0A0FB02CE4FF099
:100520000005E1FB02E506F00042E0FB03E54FF0C9
:100530000006E1FB03569CF0000F18BF4EF0010EC1
:10054000A4F1FF04B6F5007F64F5407404D25FEABD
:100550004E0E6D4146EB060642EAC62141EA555170
:100560004FEAC52040EA5E504FEACE2EB4F1FD0CB2
:1005700088BFBCF5E06F1ED8BEF1004F08BF5FEA30
:10058000500E50F1000041EB045170BD06F00046E2
:1005900046EA010140EA020081EA0301B4EB5C048F
:1005A000C2BFD4EB0C0541EA045170BD41F4801187
:1005B0004FF0000E013C00F3AB8014F1360FDEBFAC
:1005C000002001F0004170BDC4F10004203C35DA88
:1005D0000C341BDC04F11404C4F1200500FA05F30B
:1005E00020FA04F001FA05F240EA020001F00042AC
:1005F00021F0004110EBD37021FA04F642EB060122
:100600005EEA430E08BF20EAD37070BDC4F10C044B
:10061000C4F1200500FA04F320FA05F001FA04F20F
:1006200040EA020001F0004110EBD37041F10001FB
:100630005EEA430E08BF20EAD37070BDC4F1200506
:1006400000FA05F24EEA020E20FA04F301FA05F26E
:1006500043EA020321FA04F001F0004121FA04F216
:1006600020EA020000EBD3705EEA430E08BF20EAE6
:10067000D37070BD94F0000F0FD101F00046400020
:1006800041EB010111F4801F08BF013CF7D041EAA2
:10069000060195F0000F18BF704703F000465200A6
:1006A00043EB030313F4801F08BF013DF7D043EA77
:1006B0000603704794EA0C0F0CEA135518BF95EA2D
:1006C0000C0F0CD050EA410618BF52EA4306D1D1B4
:1006D00081EA030101F000414FF0000070BD50EAD3
:1006E000410606BF1046194652EA430619D094EA5D
:1006F0000C0F02D150EA013613D195EA0C0F05D147
:1007000052EA03361CBF104619460AD181EA03019A
:1007100001F0004141F0FE4141F470014FF0000052
:1007200070BD41F0FE4141F4780170BD70B54FF0ED
:10073000FF0C4CF4E06C1CEA11541DBF1CEA13556D
:1007400094EA0C0F95EA0C0F00F0A7F8A4EB05044F
:1007500081EA030E52EA03354FEA013100F0888046
:100760004FEA03334FF0805545EA131343EA12630F
:100770004FEA022245EA111545EA10654FEA0026C4
:100780000EF000419D4208BF964244F1FD0404F57D
:10079000407402D25B084FEA3202B61A65EB0305D9
:1007A0005B084FEA32024FF480104FF4002CB6EB96
:1007B000020E75EB030E22BFB61A754640EA0C0016
:1007C0005B084FEA3202B6EB020E75EB030E22BF56
:1007D000B61A754640EA5C005B084FEA3202B6EB97
:1007E000020E75EB030E22BFB61A754640EA9C0056
:1007F0005B084FEA3202B6EB020E75EB030E22BF26
:10080000B61A754640EADC0055EA060E18D04FEAE3
:10081000051545EA16754FEA06164FEAC30343EA83
:1008200052734FEAC2025FEA1C1CC0D111F4801F50
:100830000BD141EA00014FF000004FF0004CB6E749
:1008400011F4801F04BF01430020B4F1FD0C88BFE8
:10085000BCF5E06F3FF6AFAEB5EB030C04BFB6EBF3
:10086000020C5FEA500C50F1000041EB045170BDE6
:100870000EF0004E4EEA113114EB5C04C2BFD4EB13
:100880000C0541EA045170BD41F480114FF0000E97
:10089000013C90E645EA060E8DE60CEA135594EA13
:1008A0000C0F08BF95EA0C0F3FF43BAF94EA0C0F16
:1008B0000AD150EA01347FF434AF95EA0C0F7FF48B
:1008C00025AF104619462CE795EA0C0F06D152EADF
:1008D00003353FF4FDAE1046194622E750EA4106C3
:1008E00018BF52EA43067FF4C5AE50EA41047FF4D4
:1008F0000DAF52EA43057FF4EBAE12E74FF0FF3C39
:1009000006E000BF4FF0010C02E000BF4FF0010C09
:100910004DF804CD4FEA410C7FEA6C5C4FEA430C82
:1009200018BF7FEA6C5C1BD001B050EA410C0CBFD1
:1009300052EA430C91EA030F02BF90EA020F002033
:10094000704710F1000F91EA030F58BF994208BF9A
:1009500090422CBFD8176FEAE37040F00100704757
:100960004FEA410C7FEA6C5C02D150EA013C07D1AE
:100970004FEA430C7FEA6C5CD6D152EA033CD3D0F9
:100980005DF8040B704700BF8446104662468C46F3
:100990001946634600E000BF01B5FFF7B7FF002826
:1009A00048BF10F1000F01BD4DF808EDFFF7F4FF4F
:1009B0000CBF012000205DF808FB00BF4DF808EDDA
:1009C000FFF7EAFF34BF012000205DF808FB00BFFD
:1009D0004DF808EDFFF7E0FF94BF012000205DF81F
:1009E00008FB00BF4DF808EDFFF7CEFF94BF0120D4
:1009F00000205DF808FB00BF4DF808EDFFF7C4FFCD
:100A000034BF012000205DF808FB00BF4FEA410C15
:100A10007FEA6C5C02D150EA013C0AD14FEA430CF8
:100A20007FEA6C5C02D152EA033C02D14FF0000035
:100A300070474FF0010070474FEA410212F5001273
:100A400015D211D56FF47873B3EB625212D94FEA15
:100A5000C12343F0004343EA505311F0004F23FAFF
:100A600002F018BF404270474FF00000704750EA54
:100A7000013005D111F0004008BF6FF00040704711
:100A80004FF00000704700BF82B0002301930D4B70
:100A90001B68B3F1FF3F08D04FF0500383F3118878
:100AA000BFF36F8FBFF34F8FFEE74FF0500383F319
:100AB0001188BFF36F8FBFF34F8F019B002BFCD0CA
:100AC00002B070470000002006480068006880F30C
:100AD000088862B661B6BFF34F8FBFF36F8F00DF38
:100AE00000BF000008ED00E04FF0807340F8043CC8
:100AF00021F0010140F8081C034B40F80C3C40F881
:100B0000202C4038704700BF890A00080000000010
:100B1000074B19680868B0E8F00F80F30988BFF345
:100B20006F8F4FF0000080F311884EF00D0E70476C
:100B3000542A00204FF0500383F31188BFF36F8FC6
:100B4000BFF34F8F0B4A136801331360012B00D0A2
:100B500070474FF0E023D3F8043D13F0FF0FF7D0B8
:100B60004FF0500383F31188BFF36F8FBFF34F8FA4
:100B7000FEE700BF00000020094B1B6843B94FF09F
:100B8000500383F31188BFF36F8FBFF34F8FFEE7DE
:100B9000013B034A13600BB983F31188704700BF10
:100BA0000000002000000000000000000000000025
:100BB000EFF30980BFF36F8F0D4B1A6820E9F00F38
:100BC00010602DE908404FF0500080F3118801F0CB
:100BD000A3F84FF0000080F31188BDE808401968C1
:100BE0000868B0E8F00F80F30988BFF36F8F704793
:100BF000542A00204FF0E022002313619361054B3B
:100C00001B680549A1FB03139B09013B53610723A3
:100C10001361704704000020D34D621010B582B0FC
:100C200000230193354B1A78D2B28DF80220FF22AF
:100C30001A701B78DBB28DF803309DF8033003F097
:100C400050032F4A137043B94FF0500383F31188B8
:100C5000BFF36F8FBFF34F8FFEE79DF80330DB4389
:100C600013F0500F11D04FF0500383F31188BFF3EE
:100C70006F8FBFF34F8FFEE7019B013301939DF808
:100C800003305B00DBB28DF803309DF8033013F0C6
:100C9000800FF1D1019B082B2CD0019BC3F10703DE
:100CA000184A1360174A13681B02136003F4E063C9
:100CB00013609DF80230DBB2104A13704FF0E0234E
:100CC000D3F8202D42F47F02C3F8202DD3F8202D35
:100CD00042F07F42C3F8202DFFF78CFF00240A4B1F
:100CE0001C60FFF7F1FE01F017F8FFF7CDFE20467C
:100CF00002B010BD034B00221A60D3E700E400E00D
:100D0000F4010020F801002000000020EFF305832B
:100D10000F2B0FD9114A9B5CDBB2114A12789A4211
:100D200008D94FF0500383F31188BFF36F8FBFF3DF
:100D30004F8FFEE74FF0E023D3F80C3D03F4E06360
:100D4000084A1268934208D94FF0500383F3118880
:100D5000BFF36F8FBFF34F8FFEE77047F0E300E004
:100D6000F4010020F8010020124A12F0070F1ED0F3
:100D7000D11D21F00701C1F5205313440A460E4846
:100D80000260002141601344083B23F007030B4835
:100D9000036059601960991A51601360084B19601B
:100DA000084B1960084B4FF000421A6070474FF42F
:100DB0002053E4E7000200200C2A0020FC01002060
:100DC000082A0020042A0020002A0020154B1A4679
:100DD0001B688342FBD3516802EB010C844509D0A8
:100DE000416800EB010C634509D00360904218D0C4
:100DF000106070474068014451601046F0E710B43D
:100E0000094C2468A3420AD05B6819444160136806
:100E10001B680360904200D0106010BC70470460F3
:100E2000F8E770470C2A0020FC01002070B5054649
:100E300000F012FE344B1B68A3B1344B1B681D42FB
:100E40004AD135B1083515F0070F02D025F0070556
:100E50000835002D42D02E4B1B68AB424DD32D4A96
:100E6000146804E0FFF780FFE7E722461C4663684A
:100E7000AB4202D22368002BF7D1234B1B68A3425D
:100E80003DD0166808362368136063685B1B102B1F
:100E900010D9601910F0070F08D04FF0500383F3FA
:100EA0001188BFF36F8FBFF34F8FFEE7436065601C
:100EB000FFF78CFF626816490B689B1A0B60164996
:100EC00009688B4201D214490B60104B1B68134315
:100ED00063600023236002E0002600E0002600F0AB
:100EE0005DFE16F0070F0CD04FF0500383F311880E
:100EF000BFF36F8FBFF34F8FFEE70026EFE70026AB
:100F0000EDE7304670BD00BFFC010020002A002044
:100F1000042A00200C2A0020082A002080B338B5BB
:100F20000446A0F1080550F8043C164A1268134222
:100F300008D14FF0500383F31188BFF36F8FBFF3D5
:100F40004F8FFEE750F8081C41B14FF0500383F378
:100F50001188BFF36F8FBFF34F8FFEE723EA0203C1
:100F600040F8043C00F078FD54F8041C064A13686D
:100F70000B4413602846FFF729FF00F00FFE38BD31
:100F8000704700BF002A0020042A002000F1080357
:100F900043604FF6FF720281C36003610023036068
:100FA000704700230361704743684B609A688A600A
:100FB000516099600861036801330360704710B4A1
:100FC000B1F800C04FF6FF739C4511D000F1080343
:100FD0001C465B681A886245FAD963684B60996061
:100FE0008C606160086103680133036010BC704766
:100FF0000469F2E70369416882688A604168516068
:101000005A68824205D000220261186801381860CF
:10101000704782685A60F6E710B50446FFF78AFD0C
:10102000A26BE36B9A4204D00024FFF7A5FD204693
:1010300010BD0124F9E710B50446FFF77BFDA36B53
:1010400023B90124FFF798FD204610BD0024F9E7DD
:1010500070B504461546866B026C5AB903681BB11D
:1010600000200136A66370BD406800F0D7FF002362
:101070006360F6E76DB9806801F02CFC226CA36810
:101080001344A3606268934219D32368A36028467F
:10109000E7E7C06801F01EFC226C5142E3689B1A2E
:1010A000E3602268934202D263680B44E360022D3E
:1010B00001D00020D5E726B1013E0020D1E7284627
:1010C000CFE70020CDE708B50346026C62B10846C1
:1010D000D9681144D960D3F804C0614501D31968B7
:1010E000D960D96801F0F6FB08BD38B50546FFF7B1
:1010F00021FD95F8454064B201E0013C64B2002C4A
:101100000ADD6B6A43B105F1240000F085FE00287A
:10111000F3D000F021FFF0E7FF2385F84530FFF71B
:101120002BFDFFF707FD95F8444064B201E0013C58
:1011300064B2002C0ADD2B6943B105F1100000F008
:101140006BFE0028F3D000F007FFF0E7FF2385F8DF
:101150004430FFF711FD38BD38B5E0B10D46044607
:10116000FFF7E8FC2368E26B216C01FB0230606052
:101170000020A063A360013A02FB0133E360FF2378
:1011800084F8443084F84530FDB9236963B9FFF72A
:10119000F3FC012038BD4FF0500383F31188BFF3F7
:1011A0006F8FBFF34F8FFEE704F1100000F034FEA5
:1011B0000028ECD04FF0E0234FF08052C3F8042D0C
:1011C000BFF34F8FBFF36F8FE1E704F11000FFF71C
:1011D000DDFE04F12400FFF7D9FED8E738B51D463F
:1011E000049C0B4649B92460E06323640121204636
:1011F000FFF7B2FF84F84C5038BD2260F4E740B9E5
:101200004FF0500383F31188BFF36F8FBFF34F8FFD
:10121000FEE7F0B583B00C461546064689B101FBE2
:1012200000F05030FFF702FE074638B100902B4621
:1012300000F1500221463046FFF7D0FF384603B098
:10124000F0BD0846EDE7F0B585B0ADF8062088B1F1
:101250000F461D460446B1B1022D20D1E36B012B90
:101260001DD04FF0500383F31188BFF36F8FBFF38E
:101270004F8FFEE74FF0500383F31188BFF36F8F5A
:10128000BFF34F8FFEE7036C002BE5D04FF0500308
:1012900083F31188BFF36F8FBFF34F8FFEE700F02A
:1012A00061FE064660B9BDF80630002B48D04FF00D
:1012B000500383F31188BFF36F8FBFF34F8FFEE7A7
:1012C00000263DE02A4639462046FFF7C1FE636A04
:1012D0007BB948B14FF0E0234FF08052C3F8042DA2
:1012E000BFF34F8FBFF36F8FFFF746FC012005B0B0
:1012F000F0BD04F1240000F08FFD0028F4D04FF081
:10130000E0234FF08052C3F8042DBFF34F8FBFF39B
:101310006F8FE9E7FFF730FC0020E8E702A800F054
:10132000C1FD01261AE0002384F8443022E00023A6
:1013300084F8453024E02046FFF7D7FE00F02EFC6D
:10134000FFF7F8FBA26BE36B9A42BBD3022DB9D037
:10135000BDF80630002BDDD0002EDFD0FFF70CFCEF
:1013600000F07AFBFFF7E6FB94F8442052B2B2F1AA
:10137000FF3FD8D094F8452052B2B2F1FF3FD6D00B
:10138000FFF7FAFB0DF1060102A800F0A1FDE0B99C
:101390002046FFF741FE0028CDD0BDF8061004F12D
:1013A000100000F005FD2046FFF79FFE00F0F6FB61
:1013B0000028C5D14FF0E0234FF08052C3F8042D30
:1013C000BFF34F8FBFF36F8FBAE72046FFF78DFE55
:1013D00000F0E4FB00208AE72DE9F84390B10F46C6
:1013E00016461C460546B1B1022C20D1EB6B012BF1
:1013F0001DD04FF0500383F31188BFF36F8FBFF3FD
:101400004F8FFEE74FF0500383F31188BFF36F8FC8
:10141000BFF34F8FFEE7036C002BE5D04FF0500376
:1014200083F31188BFF36F8FBFF34F8FFEE7FFF792
:101430006DFCEFF311894FF0500383F31188BFF374
:101440006F8FBFF34F8FAA6BEB6B9A4206D3022CC0
:1014500004D0002089F31188BDE8F88395F8458011
:101460004FFA88F8224639462846FFF7F1FDB8F1D1
:10147000FF3F06D008F101035BB285F8453001203B
:10148000E8E76B6A0BB90120E4E705F1240000F0FE
:10149000C3FC18B126B101203060DBE70120D9E799
:1014A0000120D7E72DE9F04184B0ADF80620A8B1BE
:1014B0000E4698460446D1B100F054FD054610BBD7
:1014C000BDF80630002B00F087804FF0500383F307
:1014D0001188BFF36F8FBFF34F8FFEE74FF05003BC
:1014E00083F31188BFF36F8FBFF34F8FFEE7036C59
:1014F000002BE1D04FF0500383F31188BFF36F8FBF
:10150000BFF34F8FFEE7002566E0E56831462046D1
:10151000FFF7D9FDB8F1000F20D17B1EA36323682C
:101520003BB123694BB9FFF727FB012004B0BDE8AD
:10153000F08100F0CDFD6060F3E704F1100000F0F1
:101540006BFC0028EFD04FF0E0234FF08052C3F83F
:10155000042DBFF34F8FBFF36F8FE4E7E560636A3D
:10156000002BE0D004F1240000F056FC0028DAD073
:101570004FF0E0234FF08052C3F8042DBFF34F8F9C
:10158000BFF36F8FCFE7FFF7F7FA0020CEE702A88F
:1015900000F088FC01252AE0002384F8443032E082
:1015A000002384F8453034E0FFF7C4FA606800F0A7
:1015B000E9FCFFF7E1FA3DE02046FFF796FD00F079
:1015C000EDFA09E02046FFF790FD00F0E7FA20462B
:1015D000FFF731FD002845D1FFF7ACFAA76B002FCC
:1015E00093D1BDF80630002BCDD0002DCFD0FFF722
:1015F000C3FA00F031FAFFF79DFA94F8442052B292
:10160000B2F1FF3FC8D094F8452052B2B2F1FF3F8B
:10161000C6D0FFF7B1FA0DF1060102A800F058FCA0
:101620000028CFD12046FFF706FD0028C4D023684C
:10163000002BB9D0BDF8061004F1240000F0B8FB6F
:101640002046FFF752FD00F0A9FA0028C4D14FF060
:10165000E0234FF08052C3F8042DBFF34F8FBFF348
:101660006F8FB9E7002061E70023072B0CD8074AEA
:1016700052F833200AB10133F7E7044A42F8331035
:1016800002EBC30358607047704700BF142A002064
:1016900070B504460D461646FFF74CFA94F84430F0
:1016A0005BB2B3F1FF3F0DD094F845305BB2B3F1BC
:1016B000FF3F0BD0FFF760FAA36B5BB12046FFF74B
:1016C00014FD70BD002384F84430EDE7002384F856
:1016D0004530EFE73246294604F1240000F080FB54
:1016E000ECE70000084B1B681B6823B9074B4FF65B
:1016F000FF721A807047044B1B68DB68DB689A88AE
:10170000024B1A80704700BF582A0020082B002087
:1017100010B50446006BFFF701FC2046FFF7FEFB07
:1017200010BD2DE9F04780460D4617469946089EA4
:10173000DDF824A00A9C9200A521206B01F0D8F8C6
:10174000236B07F18042013A03EB820727F007077A
:101750004FF0000CBCF1090F0BD815F80C2004EB6E
:101760000C0383F8342015F80C3013B10CF1010C84
:10177000F0E7002384F83D30042E00D90426E66209
:10178000A6640023E364201DFFF70BFC04F118009E
:10179000FFF707FC2461B6B2C6F105062683646232
:1017A0004A4641463846FFF79FF92060BAF1000FDC
:1017B00001D0CAF80040BDE8F087000038B5002429
:1017C00007E004EB840293000E481844FFF7DEFBA9
:1017D0000134042CF5D90C4D2846FFF7D7FB0B4CF0
:1017E0002046FFF7D3FB0A48FFF7D0FB0948FFF775
:1017F000CDFB0948FFF7CAFB084B1D60084B1C6076
:1018000038BD00BF602A0020DC2A0020F02A00201A
:10181000102B00203C2B0020282B0020582A0020D1
:101820005C2A002010B50446FFF784F9224A1368A9
:1018300001331360214B1B685BB1214B1B686BB9F3
:101840001E4B1B68DA6AE36A9A4207D81B4B1C607E
:1018500004E01A4B1C601368012B29D0194A136845
:10186000013313602364E06A01238340164A116840
:101870000B43136000EB8000211D144B03EB800031
:10188000FFF792FBFFF778F90D4B1B687BB10B4B11
:101890001B68DA6AE36A9A4209D24FF0E0234FF0FC
:1018A0008052C3F8042DBFF34F8FBFF36F8F10BD6D
:1018B000FFF784FFD2E700BFC42A0020542A00208B
:1018C000242B0020D42A0020D82A0020602A0020BF
:1018D00070B504460E461F4B1D88ADB21E4B1868EE
:1018E0000430FFF787FB50B91B4B1B68DA6A0123F2
:1018F00003FA02F219490B6823EA02030B604FF660
:10190000FF739C420ED02C44A4B2134B1B689C80E6
:10191000A54210D9124B18680F4B19680431FFF714
:101920004EFB70BD002EEED00B4B196804310D48F4
:10193000FFF73AFBF5E70C4B1868074B19680431C1
:10194000FFF73DFB094B1B889BB2A342E9D9074B2C
:101950001C80E6E7502B0020542A0020D82A0020C3
:101960005C2A0020282B0020582A0020082B002069
:101970002DE9F04385B00746884614461E46900080
:10198000FFF754FAF0B181465020FFF74FFA0546B1
:10199000A0B1C0F83090D5B10023039302950D9B00
:1019A00001930C9B00933346224641463846FFF78D
:1019B000B8FE2846FFF736FF012005E04846FFF74E
:1019C000ADFAE8E74FF0FF3005B0BDE8F0834FF027
:1019D000FF30F9E700B583B0194B01930023009362
:1019E000822218491848FFF7C3FF012807D00128B1
:1019F00008D0B0F1FF3F1AD003B05DF804FB00F04F
:101A0000D7FBF4E74FF0500383F31188BFF36F8FD8
:101A1000BFF34F8F0D4B4FF6FF721A800C4B012214
:101A20001A600C4B00221A80FFF7F8F8E4E74FF039
:101A3000500383F31188BFF36F8FBFF34F8FFEE71F
:101A4000042B0020B8530008F11C0008082B0020CC
:101A5000242B0020502B0020024A1368013313600E
:101A6000704700BFD02A002010B5FFF763F8034B82
:101A70001C88A4B2FFF780F8204610BD502B002030
:101A8000F8B53B4B1B68002B67D13A4B1D88ADB2B4
:101A90000135ADB21D80C5B9374B1B681B6843B11A
:101AA0004FF0500383F31188BFF36F8FBFF34F8F55
:101AB000FEE7314A1168314B186810601960304AEE
:101AC000136801331360FFF70DFE2E4B1B889BB28A
:101AD000AB4238D900272C4B1B68DB6A03EB83032E
:101AE0009A002A4B9B58012B3CD901273AE0012749
:101AF000214B1B681B6843B31F4B1B68DB68DC680A
:101B0000A3889D4226D3261D3046FFF773FAA36AA9
:101B10001BB104F11800FFF76DFAE36A01229A4045
:101B20001B49086802430A6003EB83039A003146AD
:101B300016481044FFF738FAE26A134B1B68DB6A59
:101B40009A42D4D2D4E70027D2E70E4B4FF6FF7269
:101B50001A80C0E70B4A1380BDE70E4A13680133B1
:101B6000136000270C4B1B6803B101273846F8BDF2
:101B7000D02A0020502B0020582A00205C2A002068
:101B80000C2B0020082B0020542A0020602A002063
:101B9000D82A0020CC2A0020542B002038B5354B01
:101BA0001B6843B94FF0500383F31188BFF36F8F65
:101BB000BFF34F8FFEE7FEF7BDFF2E4B1A68013AC9
:101BC0001A601B68002B4FD12B4B1B680BB90024EC
:101BD0004BE00024294B1B681BB3284BDB68DC68F7
:101BE00004F11800FFF706FA251D2846FFF702FA50
:101BF000E06A01238340224A11680B43136000EB23
:101C0000800029461F4B03EB8000FFF7CDF9E26A05
:101C10001D4B1B68DB6A9A42DCD31C4B01221A6005
:101C2000D8E70CB1FFF75EFD194B1C6884B9174B60
:101C30001C68D4B14FF0E0234FF08052C3F8042D5C
:101C4000BFF34F8FBFF36F8F01240EE0013C07D02D
:101C5000FFF716FF0028F9D00C4B01221A60F5E7B8
:101C60000B4B00221A60E2E70024FEF785FF2046B6
:101C700038BD00BFD02A0020C42A0020102B00202D
:101C8000D82A0020602A0020542A0020542B00204B
:101C9000CC2A0020134B1B6813B310B5FFF7DCFEF2
:101CA000114B1C68FFF77AFF24B90E4B1B68002B01
:101CB000F4D110BDFEF73EFF0B4BDB68DC68201D46
:101CC000FFF798F9094A1368013B1360054A136846
:101CD000013B1360FEF750FF2046FFF719FDE4E7D4
:101CE000704700BFC82A00203C2B0020C42A0020D7
:101CF00008B5FFF7CFFF074B1B68012BF9D94FF051
:101D0000E0234FF08052C3F8042DBFF34F8FBFF391
:101D10006F8FEEE7602A0020204B1B681BB1204B21
:101D200001221A6070471E4B00221A601D4B1B686F
:101D3000B3FA83F3DBB2C3F11F0303EB83018A0021
:101D400019498A5842B94FF0500383F31188BFF301
:101D50006F8FBFF34F8FFEE7134903EB83008200C1
:101D60000A4450684068506003EB830C4FEA8C02D1
:101D700008321144884209D003EB83039A000A4BCE
:101D800013445B68DA68094B1A6070474068624622
:101D90009100054A0A445060EEE700BFD02A0020B7
:101DA000542B0020D82A0020602A0020542A00202A
:101DB00058B110B50C46094A11681831FFF7FFF801
:101DC00001212046FFF784FD10BD4FF0500383F33F
:101DD0001188BFF36F8FBFF34F8FFEE7542A0020A7
:101DE00038B570B10D4614460A4A11681831FFF72C
:101DF000DBF80CB14FF6FF7521462846FFF768FD6A
:101E000038BD4FF0500383F31188BFF36F8FBFF3DA
:101E10004F8FFEE7542A002038B5C368DC6824B32E
:101E200004F118052846FFF7E5F8184B1B682BBB93
:101E3000251D2846FFF7DEF8E06A01238340144A97
:101E400011680B43136000EB80002946114B03EB34
:101E50008000FFF7A9F8E26A0F4B1B68DB6A9A4221
:101E600011D901200D4B186038BD4FF0500383F39A
:101E70001188BFF36F8FBFF34F8FFEE729460848E5
:101E8000FFF792F8E7E70020EEE700BFD02A002036
:101E9000D82A0020602A0020542A0020542B002039
:101EA000102B002030B1084A12680260074A1288DD
:101EB000828070474FF0500383F31188BFF36F8F18
:101EC000BFF34F8FFEE700BF0C2B0020502B0020EC
:101ED00038B5D8B10C46054609B3FEF72BFE1C4BAE
:101EE0001B889BB222884FF6FF718A4228D028684F
:101EF00018490968884202D0A988994225D9A8883A
:101F0000191A89B28A4213D801241AE04FF05003FB
:101F100083F31188BFF36F8FBFF34F8FFEE74FF04E
:101F2000500383F31188BFF36F8FBFF34F8FFEE72A
:101F3000C31A1A4422802846FFF7B4FF002400E0A9
:101F40000024FEF719FE204638BD0124F9E700BF42
:101F5000502B00200C2B0020014B01221A607047EF
:101F6000542B0020054B1B6833B1054B1B680BB18C
:101F7000002070470220704701207047242B00206A
:101F8000D02A0020002842D038B50446C36A204A2F
:101F90001268D26A934211D21D4A1268928DC2F120
:101FA00005020283416903EB83031A4A02EB8303B0
:101FB000994204D0164B1B68DB6AC36238BD051D0D
:101FC0002846FFF717F890B1114B1B68D86AE062FA
:101FD00001238340104A11680B43136000EB80001B
:101FE00029460C4B03EB8000FEF7DEFFE6E7E36AD1
:101FF00003EB8301074A52F82120002AE4D1012291
:102000009A4005490B6823EA02030B60DCE770473E
:10201000542A0020602A0020D82A002000284DD011
:1020200038B50446274B1B68834208D04FF0500355
:1020300083F31188BFF36F8FBFF34F8FFEE7C36C3D
:1020400043B94FF0500383F31188BFF36F8FBFF391
:102050004F8FFEE7013BC364C16A826C91422FD06F
:102060000BB1002038BD051D2846FEF7C3FF70B92F
:10207000E26A02EB8201144B53F821303BB9012391
:1020800003FA02F211490B6823EA02030B60A06C09
:10209000E06283B2C3F105032383012404FA00F351
:1020A0000A4A11680B43136000EB80002946064B77
:1020B00003EB8000FEF778FF2046D3E7002070474F
:1020C0000020CFE7542A0020602A0020D82A0020D0
:1020D000054B1B6823B1044B1A68D36C0133D364DE
:1020E000014B1868704700BF542A0020064B1A683D
:1020F0001368B3FA83F35B09036013B9D3681888D4
:1021000070470020704700BF582B002008B5818021
:10211000006191420DD8D21A92B2038B9A4201D338
:10212000012008BD011D094B1868FEF748FF00207B
:10213000F7E79A4201D2994206D2011D044B186872
:10214000FEF73DFF0020ECE70120EAE75C2B0020D2
:10215000582B002038B5FEF7EDFC0F4B1B6813B170
:10216000FEF70AFD38BD0D4D2846FEF70FFF0C4C5B
:102170002046FEF70BFF0B4B1D600B4B1C60002233
:102180000C210A20FFF73BF8034B18600028E7D02A
:102190000649FFF769FAE3E78C2B0020602B00204B
:1021A000742B0020582B00205C2B0020C05300080B
:1021B00000B583B0FFF7CEFF0D4B1B685BB10D4B35
:1021C00001930223009300234FF482720A490B48C3
:1021D000FFF7CEFB40B94FF0500383F31188BFF3F4
:1021E0006F8FBFF34F8FFEE703B05DF804FB00BFB6
:1021F0008C2B0020902B0020C8530008DD24000801
:10220000C0B19C4603461948006868B300B585B064
:102210000191ADF80820039305291DDCFFF7A2FE0C
:10222000022810D000231A4601A910480068FFF7C1
:102230000AF816E04FF0500383F31188BFF36F8F55
:10224000BFF34F8FFEE70023BDF8182001A9074810
:102250000068FEF7F8FF04E00023624601A9FFF7DB
:10226000BBF805B05DF804FB002070478C2B002004
:1022700070B582B01B4B1B681A685AB3DB681E88A6
:10228000DC68251D2846FEF7B5FE636A20469847A0
:10229000E369012BEED1238B33449BB29E4207D2DC
:1022A000A380246129460F4B1868FEF788FEE1E7FA
:1022B000002100910B4632462046FFF7A1FF00287F
:1022C000D8D14FF0500383F31188BFF36F8FBFF362
:1022D0004F8FFEE7044A106802490860136002B09D
:1022E00070BD00BF582B00205C2B002038B5054680
:1022F000FFF7BAFB0446074B1B88834205D800232F
:102300002B60044B1C80204638BDFFF7B1FF012332
:102310002B60F6E7882B002070B582B006460D468C
:10232000154C2468E468E468201DFEF763FEE36949
:10233000012B04D0636A2046984702B070BD218B00
:10234000314433462A4689B22046FFF7DFFE002893
:10235000F0D0002100910B4632462046FFF750FF97
:102360000028E7D14FF0500383F31188BFF36F8F3C
:10237000BFF34F8FFEE700BF582B002070B582B02F
:1023800005460C46FFF768FB01A8FFF7AFFF019B6E
:1023900033BB06460CB9A8421BD22CB1124B1B68AA
:1023A0001C68B4FA84F46409A91B224689B20F4B55
:1023B0001868FFF76DF9FFF7F1FB98B94FF0E023CC
:1023C0004FF08052C3F8042DBFF34F8FBFF36F8FD0
:1023D00008E0FFF7E3FB31462846FFF79DFF01E0E9
:1023E000FFF7DCFB02B070BD5C2B00208C2B0020C3
:1023F00010B586B000231A4603A937480068FFF7D6
:1024000051F8002866D0039B002BF3DB059C636921
:1024100013B1201DFEF7EEFD02A8FFF767FF039B37
:10242000092BE7D801A252F823F000BF5524000879
:102430005524000855240008F5230008A3240008AB
:10244000CD2400085524000855240008F523000871
:10245000A3240008BDF81030218B1944024689B22C
:102460002046FFF753FE0028C4D0636A20469847F1
:10247000E369012BBED1BDF81020238B1A44002143
:1024800000910B4692B22046FFF7BAFE0028B1D168
:102490004FF0500383F31188BFF36F8FBFF34F8F5B
:1024A000FEE7BDF81010218339B10144034602460E
:1024B00089B22046FFF72AFE9CE74FF0500383F3D2
:1024C0001188BFF36F8FBFF34F8FFEE72046FEF7F3
:1024D00025FD8FE706B010BD8C2B002000B583B022
:1024E00001A8FFF703FE0199FFF748FFFFF780FF00
:1024F000F6E730B5CB7803F00F02964613F0100FD5
:1025000003D091F802E04EEA020E0B7803B30468A0
:10251000002301E042610133072B18D801229A40C1
:10252000B1F800C032EA0C05F5D14FEA830C0F2553
:1025300005FA0CF524EA05040EFA0CFC4CEA040436
:10254000CD78282DE6D0482DE5D10261E3E704607F
:102550000B88FF2B25D94468002303E0CD78482D54
:102560001CD00133072B1BD803F1080C012202FAFF
:102570000CF2B1F800C032EA0C05F2D14FEA830C3C
:102580000F2505FA0CF524EA05040EFA0CFC4CEABA
:102590000404CD78282DE1D14261DFE70261E0E754
:1025A000446030BD016170474161704721B1054A07
:1025B0009369184390617047024A936923EA0000C7
:1025C00090617047001002400C480D490D4A0023ED
:1025D00002E0D458C4500433C4188C42F9D30A4AD8
:1025E0000A4C002301E013600432A242FBD300F046
:1025F00025F900F04BF900F06FF87047000000205B
:10260000D801002014580008D8010020A82B002071
:10261000FEE700EBC000C0004FF0E023586100224D
:102620009A6105221A614FF0E0231B6913F4803F81
:10263000F9D04FF0E022136923F0010313617047D2
:1026400010B504E04FF47A70FFF7E3FF2046431E15
:102650009CB20028F6D110BD10B504E04FF47A709A
:10266000FFF7EEFF2046431E9CB20028F6D110BDB6
:1026700008B50B4C4FF400512046FFF793FF0120A3
:10268000FFF7EAFF4FF400512046FFF78DFF0120CE
:10269000FFF7E2FF4FF400512046FFF783FFE8E722
:1026A0000010014008B50B4C4FF400512046FFF7D5
:1026B00079FF0120FFF7D0FF4FF400512046FFF7CC
:1026C00073FF0120FFF7C8FF4FF400512046FFF7CA
:1026D00069FFE8E70010014070B586B001211020C5
:1026E000FFF764FF10238DF817304FF40055ADF855
:1026F000145003238DF81630144C05A92046FFF71B
:10270000F8FE29462046FFF74DFF00240494039469
:1027100004AB01930126009623464FF480720C49C6
:102720000C48FFF725F9054603AB019300962346B5
:102730004FF4807208490948FFF71AF9B54200D0F2
:10274000FEE7B042FCD1FFF745F9F9E70010014080
:10275000D053000871260008DC530008A5260008A5
:102760007047FEE7FEE7FEE7FEE7704770470000B0
:1027700082B00023019300932C4A136843F4803302
:1027800013602A4B1B6803F400330093019B013351
:102790000193009B1BB9019BB3F5A06FF1D1234BB3
:1027A0001B6813F4003F06D001230093009B012B0C
:1027B00004D002B0704700230093F7E71C4B1A685F
:1027C00042F010021A601A6822F003021A601A68B6
:1027D00042F002021A60A3F580535A685A605A68A0
:1027E0005A605A6842F480625A605A6822F47C1235
:1027F0005A605A6842F4E8125A601A6842F08072CD
:102800001A600A4B1B6813F0007FFAD0074B5A6816
:1028100022F003025A605A6842F002025A60034BE7
:102820005B6803F00C03082BF9D1C2E700100240EB
:102830000020024008B5FFF79BFF08BD08B5104B0C
:102840001A6842F001021A6059680E4A0A405A603A
:102850001A6822F0847222F480321A601A6822F414
:1028600080221A605A6822F4FE025A604FF41F0256
:102870009A60FFF7DFFF044B4FF000629A6008BDDB
:10288000001002400000FFF800ED00E070B50026E7
:102890000C4D0D4C641BA410A64209D102F07EFD24
:1028A00000260A4D0A4C641BA410A64205D170BD37
:1028B00055F8043B98470136EEE755F8043B984736
:1028C0000136F2E70C5800080C5800080C580008B4
:1028D000105800080A44914200F1FF3300D17047BC
:1028E00010B511F8014B914203F8014FF9D110BD19
:1028F00003460244934200D1704703F8011BF9E7F5
:10290000002B2DE9F0471F46BBBF03F100431F46D4
:1029100000232D2388B01446129A109D1370149B27
:10292000DDF84CA023F02008B8F1460F05D0B8F12F
:10293000450F00D10135022300E0032307AA0492CA
:1029400006AACDE902A2CDE9003522463B4600F0B9
:10295000C3FCB8F1470F064602D1119BDB0722D515
:10296000B8F1460F06EB050910D13378302B0AD1A8
:102970000022002320463946FEF716F818B9C5F1A3
:102980000105CAF80050DAF800309944002200230B
:1029900020463946FEF708F808B1CDF81C903022E1
:1029A000079B4B4507D33046079B159A9B1B13602B
:1029B00008B0BDE8F087591C07911A70F0E703468C
:1029C000F7B5002903F8022BB6BF2D222B2249426E
:1029D000092942702BDD0DF10704A4460A2791FB5B
:1029E000F7F60A46A64607FB1615632A05F13005D9
:1029F000314604F1FF340EF8015CF0DC3031AEF109
:102A0000020504F8011C2946441C61450AD30DF156
:102A10000902A2EB0E02654588BF00221344181A72
:102A200003B0F0BD11F8012B04F8012FEDE73023BE
:102A300030318370C170031DF1E700002DE9F04FC4
:102A400091B00C46DDF8688016461F46054601F039
:102A500031FA036818460993FDF77AFB00230E93B9
:102A6000D8F800300A90073323F0070303F1080277
:102A700094F81890D4F800B0C8F80020D3E90023E7
:102A8000C4E91223D4E9128A2AF000430B934FF0D1
:102A9000FF3240469C4B0B99FDF7B8FF70BB4FF0DF
:102AA000FF324046984B0B99FDF792FF30BB002256
:102AB000002340465146FDF781FF10B12D2384F8D5
:102AC0004330924B9248B9F1470F94BF98468046E5
:102AD00003234FF0000A23612BF0040323603346E5
:102AE0002146284600970FAA00F0D4F9013040F0A3
:102AF00090804FF0FF3011B0BDE8F08F4246534652
:102B000040465146FDF782FF48B1BAF1000FB8BF09
:102B10002D238048B8BF84F843307F4BD3E76368E8
:102B200009F0DF015A1C42D106236360002206929D
:102B30000EAACDE904920DAA4BF4806303920DF125
:102B40003302CDE901322360636842460093284690
:102B500053460B91FFF7D4FE0B99804647290D99F8
:102B600008D1C81C02DB6368994240DDA9F1020963
:102B70005FFA89F9B9F1650F1FD84A46013904F1A6
:102B800050000D91FFF71BFF0E9A82461318012A81
:102B9000236102DC2268D20701D5013323619DF84D
:102BA0003330002B9BD02D2384F8433097E74729FF
:102BB000BCD1002BBAD10123B7E7B9F1660F18D108
:102BC000002963680BDD216113B92268D00702D5A3
:102BD00001330B4423614FF0000AA165DFE713B90D
:102BE0002268D20701D50233F4E70123F2E74FF060
:102BF00067090E9B994205DB23682161D807EAD556
:102C00004B1CE7E70029CCBF0122C1F102021344AB
:102C1000E0E723685A0507D423694246314628462F
:102C2000B84701302BD164E7B9F1650F40F2DD8080
:102C3000D4E9120100220023FDF7B6FE002833D0AC
:102C4000012331462846354AB84701303FF451AF99
:102C5000DDE90D239A4202DB2368D8070FD5DDE9B1
:102C6000092331462846B84701303FF442AF4FF0C0
:102C7000000804F11A090E9B013B434509DC236857
:102C80009B0700F10281E0680F9B9842B8BF18468D
:102C900031E701234A4631462846B84701303FF420
:102CA00028AF08F10108E6E70D9B002B38DC012373
:102CB00031462846194AB84701303FF41AAFDDE9DA
:102CC0000D23134302D12368D907D8D5DDE90923A1
:102CD00031462846B84701303FF40BAF4FF00009AA
:102CE00004F11A0A0D9B5B424B4501DC0E9B94E7F5
:102CF0000123524631462846B84701303FF4F9AE29
:102D000009F10109EEE700BFFFFFEF7FEC53000878
:102D1000F0530008F8530008F4530008FC5300086F
:102D20000E9AA36D9A42A8BF1A46002A914637DC34
:102D30004FF0000B29EAE97904F11A02D4F858A0FF
:102D4000AAEB09035B4533DCDDE90D239A423BDB4B
:102D50002368DA0738D40E9B0D99A3EB0A02A3EB84
:102D600001099145A8BF9146B9F1000F34DC4FF03D
:102D7000000829EAE97904F11A0ADDE90D239B1A12
:102D8000A3EB090343457FF77AAF0123524631464F
:102D90002846B84701303FF4ACAE08F10108ECE733
:102DA0001346314642462846B8470130C0D1A0E616
:102DB0000123314628460B92B84701303FF499AEC3
:102DC0000B9A0BF1010BB9E73146DDE909232846DF
:102DD000B8470130BFD18CE64B463146284608EB58
:102DE0000A02B8470130C2D183E60E9A012A01DCFB
:102DF000DB0737D50123424631462846B847013024
:102E00003FF477AEDDE9092331462846B847013063
:102E10003FF46FAED4E9120100220023FDF7C4FD98
:102E2000D8B90E9B08F10102013B31462846B8474C
:102E300001300ED15DE601234A4631462846B847A7
:102E400001303FF456AE08F101080E9B013B4345AB
:102E5000F1DC534604F15002E0E64FF0000804F1C3
:102E60001A09F2E701234246DFE701234A463146C9
:102E70002846B84701303FF43CAE08F10108E3684A
:102E80000F995B1A4345F0DCFDE64FF0000804F1B2
:102E90001909F4E72DE9F047164699468A680B6947
:102EA00007469342B8BF1346336091F843200C465F
:102EB000DDF820800AB1013333602368990642BFF0
:102EC000336802333360256815F0060506D104F136
:102ED000190AE36832689B1AAB4228DC94F8432055
:102EE000131E226818BF012392062DD44946384686
:102EF00004F14302C047013020D02368E56803F0A5
:102F00000603042B18BF002532684FF00006A368A3
:102F100008BFAD1A226908BF25EAE5759342C4BF10
:102F20009B1AED181A34B5421AD1002008E001238B
:102F3000524649463846C047013003D14FF0FF3072
:102F4000BDE8F0870135C4E73020E11881F843007F
:102F50005A1C94F845102244023382F84310C5E706
:102F60000123224649463846C0470130E6D00136A3
:102F7000D9E700002DE9FF470F7E9146782F804664
:102F80000C469A460C9D01F1430207D8622F0AD8DD
:102F9000002F00F0D980582F00F0A48004F14205E2
:102FA00084F842703AE0A7F16303152BF6D801A12B
:102FB00051F823F00D300008213000089D2F000843
:102FC0009D2F00089D2F00089D2F0008213000082C
:102FD0009D2F00089D2F00089D2F00089D2F0008A1
:102FE0002F31000851300008113100089D2F0008D2
:102FF0009D2F0008513100089D2F00085130000816
:103000009D2F00089D2F0008193100082B681A1DFC
:103010001B682A6004F1420584F842300123A4E0D1
:1030200020682968060601F104030AD50E682B60A2
:10303000002E03DA2D23764284F843300A235E48BB
:1030400019E00E6810F0400F2B6018BF36B2EFE7A2
:103050002B682068191D2960010601D51E6802E051
:103060004606FBD51E886F2F0CBF08230A23524843
:10307000002184F843106568002DA8BF2168A56071
:10308000A4BF21F0040121600EB9002D4DD01546DA
:10309000B6FBF3F103FB1167C75D05F8017D374609
:1030A000BB420E46F4D9082B0BD12368DE0708D5A6
:1030B000236961689942DEBF302305F8013C05F1C0
:1030C000FF35521B22614B4621464046CDF800A0F9
:1030D00003AAFFF7DFFE01304CD14FF0FF3004B000
:1030E000BDE8F087344881F845702968236851F8B5
:1030F000046B29601D0614D5DF0744BF43F020038D
:1031000023601EB9236823F0200323601023AFE758
:10311000236843F0200323607823284884F845304F
:10312000E3E7590648BFB6B2E6E71546BBE72B68AA
:103130002668181D6169286035061B6801D519606D
:1031400002E07006FBD51980002315462361BAE71B
:103150002B6800211A1D2A601D686268284600F04D
:10316000B5FE08B1401B606063682361002384F8EA
:103170004330A8E72A46494640462369D0470130F4
:10318000ABD023689B0713D4E068039B9842B8BF79
:103190001846A4E70123324649464046D04701304D
:1031A0009BD00135E36803995B1AAB42F2DCEBE795
:1031B000002504F11906F5E7FE5300080F54000836
:1031C0002DE9F74F03690C690746A342C0F28280DC
:1031D000013C00F1140501F1140805EB840301938F
:1031E00058F8243055F8242001339A42B2FBF3F604
:1031F0004FEA840B08EB840931D34FF0000E4046B0
:10320000AC46F24650F8042B93B206FB03E3120CD3
:103210004FEA134E9BB206FB02E2AAEB0303DCF873
:1032200000A04FEA124E1FFA8AFA5344DCF800A0BD
:1032300092B2C2EB1A4202EB23429BB243EA024330
:1032400081454FEA224A4CF8043BDBD255F80B305B
:103250002BB9019B043B9D421A462FD33C61384653
:1032600001F0C0F8002825DB28464FF0000C01369D
:1032700058F8041BD0F800E08BB2ACEB03031FFA44
:103280008EF213440A0CC2EB1E4202EB23429BB2A5
:1032900043EA0243C1454FEA224C40F8043BE7D2DF
:1032A00055F8242005EB840322B9043B9D421A46BD
:1032B0000AD33C61304603B0BDE8F08F1268043B8E
:1032C000002ACBD1013CC6E71268043B002AF0D1AA
:1032D000013CEBE70020EEE72DE9F04F16461F46D4
:1032E000446A99B00546CDE90467DDF8948074B965
:1032F000102000F0E3FD0246686220B9EA21A84BE5
:10330000A84801F073FAC0E901440460C4606B6A24
:10331000196851B15A68012393404A608B6028466E
:1033200000F022FE00226B6A1A603B1EAFBF002332
:10333000012223F000430593A8BFC8F80030DDF850
:103340001490994BB8BFC8F8002033EA090319D18B
:1033500042F20F73249A1360C9F31303334300F04E
:103360007F85269B53B9914B22E0914B0393083301
:10337000269A1360039819B0BDE8F08F8B4B039326
:103380000333F5E7DDE90434CDE90C34DDE90C0164
:1033900000220023FDF708FB804658B10123249A40
:1033A0001360269B002B00F0588582481860431E4E
:1033B0000393DFE716AB019317AB00932846DDE9D3
:1033C0000C2301F0B7F8C9F30A548346002C7FD0D0
:1033D000DDE90C010D9BA4F2FF34C3F3130343F0AA
:1033E0007F5141F44011CDF84C800022724BFCF724
:1033F000BBFE65A3D3E90023FDF76EF864A3D3E910
:103400000023FCF7B3FE064620460F46FCF7FAFF02
:1034100061A3D3E90023FDF75FF802460B4630466F
:103420003946FCF7A3FE06460F46FDF705FB0022D2
:103430008246002330463946FDF7C0FA48B150466F
:10344000FCF7E0FF32463B46FDF7AEFA08B90AF159
:10345000FF3ABAF1160F58D8DDE90C01574B03EBD0
:10346000CA03D3E90023FDF7A9FA00284FD00023AF
:103470000AF1FF3A0F93169B1C1B631E099349BF69
:10348000C4F1010300230693002354BF069309935C
:10349000BAF1000F3DDB099BCDF838A053440993E6
:1034A00000230A93229B092B00F28C80052BC4BFBA
:1034B000043B2293229BC8BF0024A3F10203D8BF80
:1034C0000124032B00F28A80DFE803F02D4F4D5BCF
:1034D000DDE916431C4404F23243202BC3BFC3F181
:1034E000400304F2124009FA03F3C3F12003C6BFFC
:1034F00026FA00F0184306FA03F0FCF773FF0123E5
:10350000A1F1F871013C13936FE70123B2E70F902B
:10351000B1E7069BA3EB0A030693CAF100030A93E3
:1035200000230E93BEE700230B93239B002B58DC54
:103530004FF001094B46CDF82090CDF88C90002239
:10354000686A4260042202F114069E4241684ED924
:10355000284600F0C9FC039000284CD102464FF4E5
:10356000D571174BCCE60123DEE700230B93239B99
:103570000AEB030909F10103012B0893B8BF0123EA
:10358000DDE70123F2E700BF61436F63A787D23F06
:10359000B3C8608B288AC63FFB799F501344D33F42
:1035A0002D540008445400080000F07F29540008FE
:1035B00020540008FD5300080000F83F8055000823
:1035C000C2540008012400230B9422934FF0FF39CA
:1035D00000221223CDF820902392B0E701230B9311
:1035E000F4E7DDF88C904B46CDF82090A7E7013149
:1035F00041605200A7E76B6A039A1A60089B0E2B82
:1036000000F2A880002C00F0A580BAF1000F34DD94
:103610009A4A0AF00F0302EBC3031AF4807FD3E93E
:103620000034CDE910344FEA2A1416D0DDE90C013C
:10363000934B0327D3E90823FDF778F8CDE904017C
:1036400004F00F048E4E54B9DDE91023DDE90401C6
:10365000FDF76CF8CDE9040129E00227F2E7E10764
:1036600008D5DDE91001D6E90023FCF735FFCDE9E7
:103670001001013764100836E5E700F0A580DDE9A8
:103680000C01CAF100047D4B04F00F0203EBC203EE
:10369000D3E90023FCF720FF02270023CDE9040132
:1036A000774E2411002C40F08480002BD2D10F9B48
:1036B000002B00F08B80DDE90434CDE91034DDE926
:1036C000100100226F4BFDF779F900287ED0089B8E
:1036D000002B7BD0B9F1000F38DDDDE910010022AD
:1036E000694BFCF7F9FE4C46CDE904010AF1FF38BD
:1036F00001373846FCF786FEDDE90423FCF7ECFED3
:103700000022624BFCF732FDA1F15076CDE91001A9
:103710001196002C5DD1DDE9040100225C4BFCF721
:1037200023FD02460B46CDE904233346109AFDF7EC
:1037300063F9002840F09C82DDE90401109A06F14B
:103740000043FDF73BF9002840F09082DDE90C349E
:10375000CDE90434179B002BC0F25281BAF10E0F51
:1037600000F34E81454B03EBCA03D3E90034CDE9A6
:103770000634239B002B80F2DB80089B002B00F398
:10378000D78040F07282DDE906010022404BFCF751
:10379000A3FEDDE90423FDF725F9089C2646002851
:1037A00040F048823123039F0AF1010A07F8013BE8
:1037B00044E2E20705D5D6E90023FCF78DFE01239C
:1037C0000137641008366DE7022770E7D046089C81
:1037D0008FE70399294B214412910B9903EBC40302
:1037E000DDE9106753E90223002955D0002029495B
:1037F000FCF79CFF3B463246FCF7B6FCCDE91001D6
:10380000039FDDE90401FDF717F90446FCF7FAFD13
:1038100002460B46DDE90401FCF7A6FC02460B4616
:103820003034CDE90423DDE9102307F8014BFDF71F
:10383000C5F8002874D1DDE9042300201149FCF704
:1038400093FCDDE91023FDF7B9F8002840F0B780BC
:10385000129B9F423FF47AAFDDE9100100220A4B30
:10386000FCF73AFE0022CDE91001DDE90401064B28
:10387000FCF732FECDE90401C3E700BF8055000824
:10388000585500080000F03F0000244000001C4094
:10389000000014400000E03F30463946FCF71CFEB3
:1038A000129BCDE91001039C1493DDE90401FDF79F
:1038B000C3F81590FCF7A6FD02460B46DDE90401AE
:1038C000FCF752FC159B0646303304F8013B129B73
:1038D0000F469C424FF0000224D1DDE91001B04BAD
:1038E000FCF744FC02460B4630463946FDF784F8A7
:1038F000002863D1DDE910230020A949FCF734FC3E
:1039000002460B4630463946FDF758F800283FF48A
:103910001DAF149F7B1E149317F8013C302BF8D079
:10392000C2463BE09F4BFCF7D7FDCDE90401BCE765
:10393000039FDDE90489DDE9062340464946FCF79B
:10394000F5FEFDF779F80446FCF75CFDDDE906239A
:10395000FCF7C2FD02460B4640464946FCF704FC14
:1039600004F1300607F8016B039EDDF820C0BE1B92
:10397000B44502460B4636D1FCF7F8FBDDE90623D9
:1039800080468946FDF738F858BBDDE906234046F6
:103990004946FDF709F808B1E10722D428465946FF
:1039A00000F0E2FA00233B70249B0AF1010018604A
:1039B000269B002B3FF4DEAC1F60DBE427463B4632
:1039C0001F4613F8012D392A07D1039A9A42F7D1DD
:1039D0003022039908F101080A701A7801321A702E
:1039E0009EE7D046EBE700226E4BFCF775FD002208
:1039F000002380468946FCF7D7FF00289BD0CDE7FF
:103A00000B9A002A00F0D080229A012A00F3AE809F
:103A1000139A002A00F0A68003F233430A9C069F03
:103A2000069A01211A440692099A28461A440992D4
:103A300000F050FB0646002F0CDD099B002B09DD32
:103A4000BB42A8BF3B46069AFF1AD21A0692099AB1
:103A5000D31A09930A9BF3B10B9B002B00F0A880AB
:103A6000002C10DD31462246284600F0F1FB5A4674
:103A700001460646284600F043FB80465946284644
:103A800000F072FAC3460A9B1A1B04D05946284616
:103A900000F0DEFB83460121284600F01BFB0E9B55
:103AA0000446002B40F386801A460146284600F063
:103AB000CFFB229B0446012B7FDD4FF000082369DA
:103AC00004EB8303186900F0B7FAC0F12000099BEA
:103AD000184410F01F0000F09280C0F12003042B66
:103AE00040F38A80C0F11C00069B07440344069300
:103AF000099B03440993069B002B05DD59461A4692
:103B0000284600F0FFFB8346099B002B05DD21467C
:103B10001A46284600F0F6FB04460F9B002B70D097
:103B20002146584600F05EFC00286ADA0023594618
:103B30000A22284600F03AFA0B9B83460AF1FF3A24
:103B4000002B00F09481314600230A22284600F021
:103B50002DFAB9F1000F064600F39380229B022B49
:103B600057DC8EE0169BC3F1360357E7089B5C1EBB
:103B70000A9BA342B7BF0A9B1C1BE21A0E9BBEBF47
:103B80000A949B180E93089BB8BF0024002BBBBF60
:103B9000069B089A069F9F1AACBF089B00233FE72D
:103BA0000000E03F000024400A9C069F0B9E42E775
:103BB0000A9A6BE7229B012B19DC049BBBB9059B7E
:103BC000C3F313039BB9059B23F000431B0D1B0597
:103BD00083B14FF00108069B01330693099B013323
:103BE00009930E9B002B7FF46AAF01206FE74FF023
:103BF0000008F6E79846F4E73FF47DAF18461C301E
:103C000072E7089B002B36DC229B022B33DDDDF8AC
:103C10002090B9F1000F0DD121464B4605222846D0
:103C200000F0C4F901460446584600F0DBFB0028CA
:103C30003FF7B8AD239B039F6FEA030A4FF00008DC
:103C40002146284600F090F9002E3FF4A7AEB8F1C7
:103C5000000F05D0B04503D04146284600F084F956
:103C60003146284600F080F998E600242646E1E730
:103C7000C246264696E50B9BDDF82090002B00F00F
:103C8000FD80002F05DD31463A46284600F03AFB1C
:103C90000646B8F1000F5CD02846716800F024F9A0
:103CA000074628B9024640F2EA217F4BFFF728BBBE
:103CB000326906F10C01023292000C30FEF70AFE66
:103CC00001223946284600F01DFBB0460646039BFC
:103CD00001330893039B4B440A93049B03F00103B5
:103CE0000993089B2146013B58460493FFF768FA65
:103CF000034641463033069058460B9300F072FB62
:103D0000324681462146284600F088FBC2680746B5
:103D10000B9B02BB0146584600F064FB02460B9B1E
:103D200039462846CDE90B3200F01EF9229B0C9A49
:103D3000089F43EA0201099B0B430B9B0DD1392BD2
:103D400029D0B9F1000F01DD069B3133049A1370BD
:103D500076E73046B9E70122E2E7B9F1000F06DB6A
:103D6000229941EA0909099959EA010120D1002A59
:103D7000ECDD594601222846089300F0C3FA21469B
:103D8000834600F02FFB0028089B02DCDED1DA0717
:103D9000DCD5392BD8D13923049A13703B461F4602
:103DA00017F8012C013B392A50D001321A7047E72D
:103DB000002A03DD392BEED00133C7E7089A0A99B0
:103DC00002F8013C8A422AD0594600230A2228469A
:103DD00000F0ECF8B04583464FF000034FF00A02C4
:103DE0004146284607D100F0E1F880460646089B88
:103DF0000133089375E700F0D9F831468046002377
:103E00000A22284600F0D2F80646F0E7B9F1000F82
:103E1000CCBF4F4601274FF00008039A174459467C
:103E200001222846089300F06DFA2146834600F0EF
:103E3000D9FA0028B2DC02D1089BDB07AED43B469E
:103E40001F4613F8012D302AFAD0F9E6039A9A4258
:103E5000A5D131230AF1010A79E7144BFFF7A8BA7B
:103E6000269B002B7FF481AA114BFFF7A1BAB9F171
:103E7000000F03DC229B022B3FF7CBAE039F2146B2
:103E80005846FFF79DF9039A00F1300307F8013B0C
:103E9000BA1A9145BADD594600230A22284600F095
:103EA00085F88346EBE700BFC2540008FC530008C6
:103EB00020540008004870475C010020024B014676
:103EC000186800F00FBC00BF08000020034610B5C2
:103ED000C9B202449342184601D1002003E004789D
:103EE00001338C42F6D110BD70B5466A04460D46CA
:103EF00076B91020FFF7E2FF0246606220B9662122
:103F0000174B184800F072FCC0E901660660C660F5
:103F1000666AF36883B1636ADB6853F82500B8B951
:103F2000012101FA05F6721D2046920000F05EFBA9
:103F300060B1C0E901560EE021220421204600F0C4
:103F400055FB636AF060DB68002BE4D1002070BD94
:103F5000026843F825200023C0E90333F7E700BFD8
:103F60002D540008D354000870B5466A05460C4627
:103F700076B91020FFF7A2FF0246686220B98A21B5
:103F8000084B094800F032FCC0E901660660C660D3
:103F90003CB16B6A6268DB6853F82210216043F819
:103FA000224070BD2D540008D35400082DE9F04183
:103FB00007460C461E4600200D6901F1140CDCF882
:103FC0000030013099B202FB01611E0C0B0C02FBA8
:103FD000063389B201EB034185424FEA13464CF8A0
:103FE000041BECDC0EB3A368AB4219DC61683846F5
:103FF0000131FFF779FF804628B90246B5210C4B05
:104000000C4800F0F3FB226904F10C01023292002B
:104010000C30FEF75FFC21463846FFF7A5FF44460B
:1040200004EB850301355E6125612046BDE8F08122
:10403000C2540008D3540008020C12040346CAB943
:104040000304102013F07F4F04BF1B02083013F04D
:10405000704F04BF1B01043013F0404F04BF9B009E
:104060000230002B05DB13F0804F00F1010008BF88
:10407000202070470020E5E70368024613F00700A0
:104080000BD0D90721D4980749BF5B089B080120B2
:1040900013605CBF02201360704799B209B9102009
:1040A0001B0CD9B209B908301B0A190704BF1B0938
:1040B0000430990704BF9B080230D90703D45B087A
:1040C00000F1010003D013607047002070472020EA
:1040D0007047000010B50C460121FFF705FF0246AE
:1040E00028B94FF4A071044B044800F07FFB012372
:1040F0004461036110BD00BFC2540008D3540008DE
:104100002DE9F04F91460A69D9F810300C469A42D1
:10411000BEBF0B464C4699462769D9F810A0A36844
:10412000616807EB0A06B34285B0B8BF0131FFF7FB
:10413000DBFE30B9024640F25D11434B434800F0CC
:1041400055FB00F114052B46002205EB860843457C
:1041500021D304F1140303EB870709F1140303EBE4
:104160008A0202923A1B153A22F00302043204F149
:1041700015018F4238BF04220192029A03939A429A
:104180000CD8002E03DD58F8043D002B59D00661F1
:1041900005B0BDE8F08F43F8042BD8E7B3F800A0D2
:1041A000BAF1000F23D0A9464FF0000C04F1140E11
:1041B0005EF8042BD9F800101FFA82FB89B20AFBC3
:1041C0000B116144D9F800C0120C4FEA1C4C0AFBD9
:1041D00002C202EB114289B241EA024177454FEA3D
:1041E000124C49F8041BE3D8019A45F802C0039A1F
:1041F0000433B2F80290B9F1000F20D0AE464FF070
:10420000000A296804F1140CBCF800B0BEF80220C2
:1042100089B209FB0B22924441EA0A414EF8041B81
:104220005CF8042BBEF80010120C09FB0211674564
:1042300001EB1A414FEA114AE6D8019AA950043518
:104240009BE7013E9DE700BFC2540008D35400081D
:104250002DE9F843154612F0030206460F4607D033
:10426000254C013A002354F82220FFF79FFE074611
:10427000AD103DD0746A7CB91020FFF71FFE0246D6
:10428000706228B94FF4D7711C4B1D4800F0AEFA8C
:10429000C0E901440460C460D6F82480D8F808401E
:1042A0004CB940F271213046FFF714FF0023044659
:1042B000C8F8080003604FF00009EB070AD539463B
:1042C00022463046FFF71CFF804639463046FFF74E
:1042D0004BFE47466D100BD0206838B92246214668
:1042E0003046FFF70DFF2060C0F800900446E4E779
:1042F0003846BDE8F88300BF485600082D54000832
:10430000D35400082DE9F0470C460746914623692F
:10431000496803EB6218A3684FEA621A08F10106C4
:10432000B3420BDB3846FFF7DFFD054648B90246CE
:1043300040F2D911294B2A4800F058FA01315B00AC
:10434000EEE7002300F1140100F110021846534576
:1043500037DB20692AEAEA7A04F1140319F01F090D
:1043600001EB8A0103EB80002FD08A464FF0000C4E
:10437000C9F1200E1A6802FA09F242EA0C024AF860
:10438000042B53F8042B984222FA0EFCF2D8031B9C
:10439000153B23F00303043304F11502904238BFA8
:1043A000042341F803C0BCF1000F01D008F102065C
:1043B000013E384621462E61FFF7D6FD2846BDE86E
:1043C000F08742F8040F0133C1E7043953F8042B96
:1043D000984241F8042FF9D8EAE700BFC254000818
:1043E000D354000803460A69006930B5801A0DD11C
:1043F0001433143103EB820401EB820154F8045DA1
:1044000051F8042D954202D004D3012030BDA342BF
:10441000F4D3FBE74FF0FF30F8E700002DE9F84F49
:104420000D460746114628461446FFF7DBFF061ED9
:1044300011D131463846FFF757FD024628B940F200
:1044400032213A4B3A4800F0D1F90123C0E9043651
:104450001046BDE8F88FA4BF23462C463846616855
:10446000A6BF1D4600260126FFF73EFD024618B9ED
:104470004FF410712D4BE5E702F11408C2464FF0DE
:10448000000C2769C6602E6904F1140005F11409B7
:1044900000EB870E09EB8606103454F804BF59F878
:1044A000043B1FFA8BF18C4499B21B0CACEB01015D
:1044B000C3EB1B4303EB214389B24FEA234C4E4528
:1044C00041EA03434AF8043BE7D8731B153B23F04A
:1044D000030315350433AE4238BF04231844434464
:1044E0001E46054675450ED30EF10301091A21F04B
:1044F00003010338864538BF0021194451F8043DB3
:104500008BB11761A4E755F8048B1FFA88F1614459
:104510000C1404EB184489B241EA04414FEA244CDC
:1045200046F8041BDEE7013FE8E700BFC25400087D
:10453000D35400082DE9F3410121DDE908769046C6
:104540001D46FFF7D1FC044630B9024640F20A315D
:10455000244B254800F04AF9C5F31303C5F30A5567
:104560002DBB0193B8F1000326D068460093FFF7F6
:1045700083FD0099F0B1019AC0F1200302FA03F320
:104580000B43C24063610192019B002B14BF0221C7
:104590000121A3612161C5B1A5F233450544C0F1F4
:1045A00035003D603060204602B0BDE8F08143F444
:1045B0008013D6E76161E7E701A8FFF75DFD012100
:1045C000019B216163612030E5E704EB8103A0F2E8
:1045D000324038601869FFF72FFDC0EB41113160A0
:1045E000E1E700BFC2540008D354000870B5A1FB36
:1045F000025434B9294600F075F8064628B9304609
:1046000070BD0C2200260260F9E72A462146FEF71B
:104610006FF9F4E738B50546002940D051F8043C5D
:104620000C1F002BB8BFE41800F022F91C4A1368D5
:1046300033B9636014602846BDE8384000F01EB905
:10464000A34208D9206821188B4201BF19685B6812
:1046500009182160EDE71A465B680BB1A342FAD94D
:1046600011685018A0420BD12068014450188342B1
:104670001160E0D118685B68014411605360DAE7AB
:1046800002D90C232B60D6E7206821188B4201BF8A
:1046900019685B680918216063605460CBE738BD16
:1046A000942B002070B50E4E0C463168054611B9AA
:1046B00000F08CF830602146284600F087F8431C53
:1046C0000AD0C41C24F00304A04207D0211A2846B3
:1046D00000F07CF8013001D14FF0FF34204670BD6E
:1046E000982B00202DE9F041CD1C25F0030508355D
:1046F0000C2D38BF0C25002D074601DBA94205D93A
:104700000C2300263B603046BDE8F0812E4E00F0C1
:10471000AFF833681C4634BB29463846FFF7C2FF62
:10472000431C04464DD134682646002E40D12368F0
:104730003146384604EB030800F048F880453AD18A
:10474000216803356D1A25F0030508350C2D38BF97
:104750000C2538462946FFF7A5FF01302BD02368EA
:104760002B4423600EE02268521B1ED40B2A16D95C
:104770006119A342256018BF5960636808BF3160A2
:1047800062514B60384604F10B0600F077F826F0D2
:104790000706231DF21AB6D09B1BA350B3E762682D
:1047A000A3420CBF32605A60ECE723466468B2E76C
:1047B00034467668B9E70C2338463B6000F05EF873
:1047C000A1E72560DEE700BF942B002038B5002369
:1047D000054D044608462B6000F0C8FD431C02D17D
:1047E0002B6803B1236038BD9C2B00201FB51446F5
:1047F0001A46094B05461B68D8684CB1074BCDE9F2
:10480000013400912B46064900F00EF800F062FAE0
:10481000044B1C46F3E700BF080000205456000874
:10482000615600088F5600080EB403B5014603AB6D
:10483000054853F8042B0068019300F04DF802B0CE
:104840005DF804EB03B070470800002082B001B9A6
:1048500001A942B14BB113780B601278101E18BF3A
:10486000012002B070471046FBE76FF00100F8E747
:10487000014800F0EBBB00BFA02B0020014800F076
:10488000E6BB00BFA02B0020936810B4013B002BB7
:10489000936007DA9469A34201DB0A2902D110BCB4
:1048A00000F04AB91368581C10601970084610BC13
:1048B0007047F8B506460F461446D518AC4201D1EC
:1048C000002007E03A46304614F8011BFFF7DCFFF2
:1048D000431CF3D1F8BD00002DE9F04F0D461446FE
:1048E000984606469DB018B183690BB900F010FBDD
:1048F000894B9D421BD175686B6ED90705D4AB8976
:104900009A0502D4A86D00F0A1FBAB891B0701D565
:104910002B69EBB92946304600F06EF9C0B16B6ED9
:10492000DC070ED54FF0FF301DB0BDE8F08F7B4B9C
:104930009D4201D1B568DFE7794B9D4208BFF5681C
:10494000DAE7AB899805EDD4A86D00F080FBE9E7C4
:104950000023099320238DF8293030234FF00109DB
:10496000CDF80C80DFF8BC818DF82A3023469A46BA
:1049700013F8012B0AB1252AF9D1BAEB040B0BD09D
:104980005B46224629463046FFF793FF013000F090
:10499000AA80099A5A4409929AF80030002B00F034
:1049A000A28000234FF0FF32CDE905230AF1010A6E
:1049B000049307938DF853301A935446052214F844
:1049C000011B5848FFF782FA049AD8B9D10644BFB0
:1049D00020238DF85330130744BF2B238DF8533019
:1049E0009AF800302A2B15D0544600204FF00A0CBC
:1049F000079A214611F8013B303B092B4ED9B0B143
:104A0000079214E0A0EB080309FA03F31343A2464C
:104A10000493D2E7039B191D1B680391002BBBBFB6
:104A20005B4242F0020207930793B8BF04922378D7
:104A30002E2B0CD163782A2B35D1039B02341A1DFF
:104A40001B680392002BB8BF4FF0FF330593DFF8CC
:104A5000D8A0032250462178FFF738FA40B140230E
:104A6000A0EB0A0003FA00F0049B01340343049313
:104A700014F8011B06222D488DF82810FFF726FA9E
:104A800000283FD02A4B1BBB039B073323F00703AF
:104A900008330393099B3B44099367E70C460120C5
:104AA0000CFB0232A5E700234FF00A0C1946013433
:104AB0000593204610F8012B303A092A03D9002B20
:104AC000C5D00591C3E7044601230CFB0121F0E7A3
:104AD00003AB00932A463046164B04A9FDF7AEFF00
:104AE0000746781CD6D16B6ED90705D4AB899A05D9
:104AF00002D4A86D00F0ABFAAB895B063FF512AFAC
:104B0000099811E703AB00932A463046094B04A9E4
:104B1000FEF730FAE4E700BFCC570008EC57000876
:104B2000AC5700089A560008A0560008A456000882
:104B30003D2A0008B3480008F8B50E46144605465D
:104B400018B183690BB900F0E3F9214B9C422BD1DA
:104B50006C68A369A360A3891A072FD523696BB377
:104B600023692068F6B2C01A63693746834204DCC1
:104B70002146284600F038F930BBA3680130013BDC
:104B8000A36023685A1C22601E706369834204D0AC
:104B9000A389DB0706D50A2E04D12146284600F05A
:104BA00023F988B93846F8BD0A4B9C4201D1AC685C
:104BB000CFE7094B9C4208BFEC68CAE7214628466C
:104BC00000F01AF80028CBD04FF0FF37EAE700BF1B
:104BD000CC570008EC570008AC57000803460846BD
:104BE00041B1FF2A04D98A224FF0FF301A60704782
:104BF00001200A7070470000324B70B51D680646F0
:104C00000C4625B1AB6913B9284600F081F92E4B4B
:104C10009C420FD16C68A389B4F90C2019072CD4DD
:104C2000DD0611D40923336042F040034FF0FF301A
:104C3000A3813EE0254B9C4201D1AC68EBE7244BBD
:104C40009C4208BFEC68E6E7580712D5616B41B19A
:104C500004F14403994202D03046FFF7DBFC002305
:104C60006363A38923F02403A38100236360236982
:104C70002360A38943F00803A38123694BB9A38967
:104C800003F42073B3F5007F03D02146304600F0D3
:104C900005FAA089B4F90C2010F001030AD0002312
:104CA000A36063695B42A361236943B910F080008C
:104CB000BAD170BD810758BF6369A360F4E70020D3
:104CC000F7E700BF08000020CC570008EC570008A9
:104CD000AC570008062008B500F048FA012000F0A3
:104CE0005BFB00008A89F8B5054610070C4657D4CF
:104CF0004B68002B04DC0B6C002B01DC0020F8BDA2
:104D0000E66A002EFAD0002312F480522F682B603E
:104D100032D0606DA3895A0705D56368C01A636BEA
:104D20000BB1236CC01A00230246E66A2846216AAA
:104D3000B047431CA38906D129681D292CD8294ACC
:104D4000CA40D60728D5002262602269D9042260B1
:104D500004D5421C01D12B6803B96065616B2F60DB
:104D60000029CBD004F14403994202D02846FFF732
:104D700051FC00206063C2E7216A01232846B04746
:104D8000411CC7D12B68002BC4D01D2B01D0162B82
:104D900001D12F60B2E7A38943F04003A381AEE7BE
:104DA0000F69002FAAD0930718BF00230E6808BF11
:104DB0004B69F61B0F608B60002E9FDD33463A4631
:104DC0002846216AD4F828C0E047002806DCA389D9
:104DD0004FF0FF3043F04003A38190E70744361AB9
:104DE000EAE700BF0100402038B50B6905460C46D4
:104DF00013B90025284638BD18B183690BB900F0F6
:104E000087F8144B9C421BD16C68B4F90C30002B12
:104E1000EFD0626ED00704D4990502D4A06D00F0E3
:104E200015F928462146FFF75DFF636E0546DA0750
:104E3000E0D4A3899B05DDD4A06D00F008F9D9E783
:104E4000054B9C4201D1AC68DFE7044B9C4208BF94
:104E5000EC68DAE7CC570008EC570008AC570008BC
:104E6000002310B50446C0E90033C0E90433836071
:104E700081814366C2818361194608225C30FDF757
:104E800037FD054B24626362044BA362044BE3626B
:104E9000044B236310BD00BFA5510008C751000893
:104EA000FF51000823520008014900F0AFB800BFCD
:104EB000E94D0008682270B54D1E55430E4605F1B8
:104EC0007401FFF70FFC044640B10021C0E9001651
:104ED0000C30A06005F16802FDF70AFD204670BDA8
:104EE000014800F0B3B800BFA12B0020014800F03A
:104EF000AEB800BFA12B0020014800F0A7B800BF4A
:104F0000A22B0020014800F0A2B800BFA22B002075
:104F100010B50446FFF7F0FFA3691BB1BDE81040D0
:104F2000FFF7F0BFC4E912332365134B134A1B6824
:104F3000A262A34208BF0123204608BFA36100F07C
:104F40001FF86060204600F01BF8A060204600F0CB
:104F500017F800220421E0606068FFF781FF01225A
:104F60000921A068FFF77CFF02221221E068FFF709
:104F700077FF0123A361D1E7E8530008A94E000899
:104F8000F8B50746FFF7ACFF1E4B1E68B36913B9AF
:104F90003046FFF7BDFF4836D6E90134013B03D563
:104FA00033680BB33668F7E7B4F90C50D5B9164B34
:104FB00004F15800E360656600F047F8FFF796FFDC
:104FC00008222946C4E90155C4E904552560A561B4
:104FD00004F15C00FDF78CFCC4E90D55C4E91255E1
:104FE0002046F8BD6834D9E704213846FFF762FF50
:104FF000044630600028D5D1FFF778FF0C233B60D2
:10500000EEE700BFE85300080100FFFF2DE9F84379
:1050100006468846002700F14804D4E90195B9F115
:10502000010905D52468002CF7D13846BDE8F8837E
:10503000AB89012B07D9B5F90E30013303D02946CE
:105040003046C04707436835E9E770477047704707
:1050500070B50E46B1F90E10144600291D4696B0E3
:1050600008DA0022B6F90C302A601A0610D44FF480
:1050700080630EE06A4600F0FBF80028F1DB019A3D
:1050800002F47042A2F500535A425A412A60EEE7F8
:1050900040230020236016B070BD00008B8973B5DB
:1050A0009D0706460C4607D504F14703236023619C
:1050B0000123636102B070BD6A4601ABFFF7C8FF10
:1050C000009905463046FFF70DFB48B9B4F90C309E
:1050D0009A05EFD423F0030343F00203A381E3E72F
:1050E0000D4BB362A389206043F08003A381009B32
:1050F00020616361019B5BB13046B4F90E1000F092
:10510000C9F828B1A38923F0030343F00103A38165
:10511000A0890543A581CDE7A94E00081F2938B510
:1051200004460D4604D9162303604FF0FF3038BD06
:10513000426C12B152F821304BB9204600F030F8E1
:105140002A4601462046BDE8384000F017B8012B3A
:105150000AD0591C03D1162303600120E7E700247D
:10516000284642F8254098470020E0E7024B0146D8
:105170001868FFF7D3BF00BF0800002038B5002330
:10518000064D0446084611462B6000F0D7F8431C34
:1051900002D12B6803B1236038BD00BF9C2B0020D7
:1051A00000F0BCB810B50C46B1F90E1000F094F840
:1051B0000028ABBF636DA3891B1823F48053ACBFD9
:1051C0006365A38110BD2DE9F0411F468B8905461B
:1051D000DB050C46164605D502230022B1F90E1058
:1051E00000F068F8A389324623F48053A38128464F
:1051F0003B46B4F90E10BDE8F04100F017B810B509
:105200000C46B1F90E1000F055F8431CA38915BFE8
:10521000606523F4805343F48053A38118BFA381B6
:1052200010BDB1F90E1000F013B8000038B50446F7
:10523000084611460022054D2A601A4600F0A4F8DF
:10524000431C02D12B6803B1236038BD9C2B002086
:1052500038B50023054D044608462B6000F04EF893
:10526000431C02D12B6803B1236038BD9C2B002066
:1052700038B50023064D0446084611462B6000F061
:1052800045F8431C02D12B6803B1236038BD00BF31
:105290009C2B002038B50023054D044608462B60A2
:1052A00000F044F8431C02D12B6803B1236038BDE1
:1052B0009C2B002038B50446084611460022054DB7
:1052C0002A601A4600F042F8431C02D12B6803B151
:1052D000236038BD9C2B002038B504460846114693
:1052E0000022054D2A601A4600F038F8431C02D10E
:1052F0002B6803B1236038BD9C2B00205822024B41
:105300004FF0FF301A6070479C2B00205822024B50
:105310004FF0FF301A6070479C2B00205822024B40
:105320004FF0FF301A6070479C2B00205822024B30
:1053300000201A60704700BF9C2B00205822024BAF
:105340004FF0FF301A6070479C2B00205822024B10
:105350004FF0FF301A6070479C2B00205822024B00
:105360004FF0FF301A6070479C2B0020044A05491B
:105370001368002B08BF0B4618441060184670478E
:10538000A42B0020A82B00205822024B4FF0FF3006
:105390001A6070479C2B0020FEE700BFF8B500BFE5
:1053A000F8BC08BC9E467047F8B500BFF8BC08BC06
:0453B0009E4670475E
:1053B80049444C4500000000546D72510000000043
:1053C800546D7220537663007461736B5F6C65640F
:1053D800000000005461736B5F6C65645F3200000D
:1053E8000C000020494E4600696E66004E414E0092
:1053F8006E616E003000303132333435363738392B
:10540800414243444546003031323334353637382B
:105418003961626364656600496E66696E697479AC
:10542800004E614E005245454E54206D616C6C6FC4
:105438006320737563636565646564002F6D6E74BE
:105448002F776F726B73706163652F776F726B73F1
:10545800706163652F4743432D31302D7069706546
:105468006C696E652F6A656E6B696E732D47434371
:105478002D31302D706970656C696E652D33333848
:105488005F32303231313031385F31363334353193
:10549800363230332F7372632F6E65776C69622FE3
:1054A8006E65776C69622F6C6962632F7374646CC4
:1054B80069622F64746F612E630042616C6C6F6364
:1054C80020737563636565646564002F6D6E742F62
:1054D800776F726B73706163652F776F726B737020
:1054E8006163652F4743432D31302D706970656CBA
:1054F800696E652F6A656E6B696E732D4743432D20
:1055080031302D706970656C696E652D3333385F85
:1055180032303231313031385F313633343531362B
:105528003230332F7372632F6E65776C69622F6E1A
:1055380065776C69622F6C6962632F7374646C6938
:10554800622F6D707265632E63000000000000001A
:105558000080E03779C34143176E05B5B5B8934667
:10556800F5F93FE9034F384D321D30F94877825A33
:105578003CBF737FDD4F1575000000000000F03F51
:105588000000000000002440000000000000594016
:105598000000000000408F40000000000088C34069
:1055A80000000000006AF8400000000080842E41DE
:1055B80000000000D01263410000000084D797412A
:1055C8000000000065CDCD41000000205FA0024230
:1055D800000000E876483742000000A2941A6D42A5
:1055E800000040E59C30A2420000901EC4BCD64298
:1055F80000003426F56B0C430080E03779C3414343
:1056080000A0D8855734764300C84E676DC1AB43B8
:10561800003D9160E458E143408CB5781DAF1544D6
:1056280050EFE2D6E41A4B4492D54D06CFF08044B1
:10563800F64AE1C7022DB544B49DD9794378EA44C6
:1056480005000000190000007D0000002C20667590
:105658006E6374696F6E3A20006173736572746962
:105668006F6E2022257322206661696C65643A207A
:1056780066696C6520222573222C206C696E652072
:105688002564257325730A004300504F5349580079
:105698002E00232D302B2000686C4C006566674572
:1056A80046470000202020202020202020282828CD
:1056B80028282020202020202020202020202020D2
:1056C800202020208810101010101010101010101A
:1056D800101010100404040404040404040410103A
:1056E80010101010104141414141410101010101D7
:1056F8000101010101010101010101010101011083
:1057080010101010104242424242420202020202AB
:105718000202020202020202020202020202021053
:105728001010102000000000000000000000000021
:105738000000000000000000000000000000000061
:105748000000000000000000000000000000000051
:105758000000000000000000000000000000000041
:105768000000000000000000000000000000000031
:105778000000000000000000000000000000000021
:105788000000000000000000000000000000000011
:105798000000000000000000000000000000000001
:1057A80000000000000000000000000000000000F1
:1057B80000000000000000000000000000000000E1
:1057C80000000000000000000000000000000000D1
:1057D80000000000000000000000000000000000C1
:1057E80000000000000000000000000000000000B1
:1057F80000000000000000000000000000000000A1
:04580800000000009C
:04580C00350100085A
:04581000110100087A
:10581400AAAAAAAA00A24A040C00002000000000C0
:10582400CC570008EC570008AC57000800000000F3
:105834000000000000000000000000000000000064
:105844000000000000000000000000000000000054
:105854000000000000000000000000000000000044
:105864000000000000000000000000000000000034
:1058740000000000000000000000000043000000E1
:105884000000000000000000000000000000000014
:1058940000000000000000000000000043000000C1
:1058A40000000000000000000000000000000000F4
:1058B40000000000000000000000000043000000A1
:1058C40000000000000000000000000000000000D4
:1058D4000000000000000000000000004300000081
:1058E40000000000000000000000000000000000B4
:1058F4000000000000000000000000004300000061
:105904000000000000000000000000000000000093
:105914000000000000000000000000004300000040
:105924000000000000000000000000000000000073
:105934000000000000000000000000004300000020
:105944000000000000000000000000000000000053
:10595400000000000000000000000000DD4B000813
:105964004D48000800000000AB5600089856000897
:105974008F5600088F5600088F5600088F5600086F
:105984008F5600088F5600088F5600088F5600085F
:105994008F560008FFFFFFFFFFFFFFFFFFFFFFFF22
:1059A400FFFF00000100415343494900000000008B
:1059B40000000000000000000000000000000000E3
:1059C400000000000000415343494900000000006A
:1059D40000000000000000000000000000000000C3
:0859E4000000000000000000BB
:04000005080025C901
:00000001FF
